{
  "address": "0xf042F2dABba35f83eb126116f7Ff8dAdfC631E97",
  "abi": [
    {
      "inputs": [
        {
          "internalType": "address[]",
          "name": "payees",
          "type": "address[]"
        },
        {
          "internalType": "uint256[]",
          "name": "shares_",
          "type": "uint256[]"
        }
      ],
      "stateMutability": "payable",
      "type": "constructor"
    },
    {
      "anonymous": false,
      "inputs": [
        {
          "indexed": true,
          "internalType": "contract IERC20",
          "name": "token",
          "type": "address"
        },
        {
          "indexed": false,
          "internalType": "address",
          "name": "to",
          "type": "address"
        },
        {
          "indexed": false,
          "internalType": "uint256",
          "name": "amount",
          "type": "uint256"
        }
      ],
      "name": "ERC20PaymentReleased",
      "type": "event"
    },
    {
      "anonymous": false,
      "inputs": [
        {
          "indexed": false,
          "internalType": "address",
          "name": "account",
          "type": "address"
        },
        {
          "indexed": false,
          "internalType": "uint256",
          "name": "shares",
          "type": "uint256"
        }
      ],
      "name": "PayeeAdded",
      "type": "event"
    },
    {
      "anonymous": false,
      "inputs": [
        {
          "indexed": false,
          "internalType": "address",
          "name": "from",
          "type": "address"
        },
        {
          "indexed": false,
          "internalType": "uint256",
          "name": "amount",
          "type": "uint256"
        }
      ],
      "name": "PaymentReceived",
      "type": "event"
    },
    {
      "anonymous": false,
      "inputs": [
        {
          "indexed": false,
          "internalType": "address",
          "name": "to",
          "type": "address"
        },
        {
          "indexed": false,
          "internalType": "uint256",
          "name": "amount",
          "type": "uint256"
        }
      ],
      "name": "PaymentReleased",
      "type": "event"
    },
    {
      "inputs": [
        {
          "internalType": "uint256",
          "name": "index",
          "type": "uint256"
        }
      ],
      "name": "payee",
      "outputs": [
        {
          "internalType": "address",
          "name": "",
          "type": "address"
        }
      ],
      "stateMutability": "view",
      "type": "function"
    },
    {
      "inputs": [
        {
          "internalType": "address payable",
          "name": "account",
          "type": "address"
        }
      ],
      "name": "release",
      "outputs": [],
      "stateMutability": "nonpayable",
      "type": "function"
    },
    {
      "inputs": [
        {
          "internalType": "contract IERC20",
          "name": "token",
          "type": "address"
        },
        {
          "internalType": "address",
          "name": "account",
          "type": "address"
        }
      ],
      "name": "release",
      "outputs": [],
      "stateMutability": "nonpayable",
      "type": "function"
    },
    {
      "inputs": [
        {
          "internalType": "contract IERC20",
          "name": "token",
          "type": "address"
        },
        {
          "internalType": "address",
          "name": "account",
          "type": "address"
        }
      ],
      "name": "released",
      "outputs": [
        {
          "internalType": "uint256",
          "name": "",
          "type": "uint256"
        }
      ],
      "stateMutability": "view",
      "type": "function"
    },
    {
      "inputs": [
        {
          "internalType": "address",
          "name": "account",
          "type": "address"
        }
      ],
      "name": "released",
      "outputs": [
        {
          "internalType": "uint256",
          "name": "",
          "type": "uint256"
        }
      ],
      "stateMutability": "view",
      "type": "function"
    },
    {
      "inputs": [
        {
          "internalType": "address",
          "name": "account",
          "type": "address"
        }
      ],
      "name": "shares",
      "outputs": [
        {
          "internalType": "uint256",
          "name": "",
          "type": "uint256"
        }
      ],
      "stateMutability": "view",
      "type": "function"
    },
    {
      "inputs": [
        {
          "internalType": "contract IERC20",
          "name": "token",
          "type": "address"
        }
      ],
      "name": "totalReleased",
      "outputs": [
        {
          "internalType": "uint256",
          "name": "",
          "type": "uint256"
        }
      ],
      "stateMutability": "view",
      "type": "function"
    },
    {
      "inputs": [],
      "name": "totalReleased",
      "outputs": [
        {
          "internalType": "uint256",
          "name": "",
          "type": "uint256"
        }
      ],
      "stateMutability": "view",
      "type": "function"
    },
    {
      "inputs": [],
      "name": "totalShares",
      "outputs": [
        {
          "internalType": "uint256",
          "name": "",
          "type": "uint256"
        }
      ],
      "stateMutability": "view",
      "type": "function"
    },
    {
      "stateMutability": "payable",
      "type": "receive"
    }
  ],
  "transactionHash": "0x4282cec76333fe33af6411008cee3aa2337b0064bb2469934954f747133c7b84",
  "args": [
    [
      "0xFF84bA26bA108D1De17291F95443aEB0b0dD5Ab5",
      "0x296beA2b562888497DD46236f3D3580ff07FF694",
      "0x28d24Cd683B67511e9701fF0b71fE890314D8D92"
    ],
    [
      63,
      30,
      7
    ]
  ],
  "solcInputHash": "2a150d5ef428ac311013fde750b58762",
  "bytecode": "0x608060405260405162001538380380620015388339810160408190526200002691620003c6565b8051825114620000985760405162461bcd60e51b815260206004820152603260248201527f5061796d656e7453706c69747465723a2070617965657320616e6420736861726044820152710cae640d8cadccee8d040dad2e6dac2e8c6d60731b60648201526084015b60405180910390fd5b6000825111620000eb5760405162461bcd60e51b815260206004820152601a60248201527f5061796d656e7453706c69747465723a206e6f2070617965657300000000000060448201526064016200008f565b60005b825181101562000157576200014283828151811062000111576200011162000552565b60200260200101518383815181106200012e576200012e62000552565b60200260200101516200016060201b60201c565b806200014e816200051e565b915050620000ee565b5050506200057e565b6001600160a01b038216620001cd5760405162461bcd60e51b815260206004820152602c60248201527f5061796d656e7453706c69747465723a206163636f756e74206973207468652060448201526b7a65726f206164647265737360a01b60648201526084016200008f565b600081116200021f5760405162461bcd60e51b815260206004820152601d60248201527f5061796d656e7453706c69747465723a2073686172657320617265203000000060448201526064016200008f565b6001600160a01b038216600090815260026020526040902054156200029b5760405162461bcd60e51b815260206004820152602b60248201527f5061796d656e7453706c69747465723a206163636f756e7420616c726561647960448201526a206861732073686172657360a81b60648201526084016200008f565b60048054600181019091557f8a35acfbc15ff81a39ae7d344fd709f28e8600b4aa8c65c6b64bfe7fe36bd19b0180546001600160a01b0319166001600160a01b0384169081179091556000908152600260205260408120829055546200030390829062000503565b600055604080516001600160a01b0384168152602081018390527f40c340f65e17194d14ddddb073d3c9f888e3cb52b5aae0c6c7706b4fbc905fac910160405180910390a15050565b600082601f8301126200035e57600080fd5b81516020620003776200037183620004dd565b620004aa565b80838252828201915082860187848660051b89010111156200039857600080fd5b60005b85811015620003b9578151845292840192908401906001016200039b565b5090979650505050505050565b60008060408385031215620003da57600080fd5b82516001600160401b0380821115620003f257600080fd5b818501915085601f8301126200040757600080fd5b815160206200041a6200037183620004dd565b8083825282820191508286018a848660051b89010111156200043b57600080fd5b600096505b84871015620004765780516001600160a01b03811681146200046157600080fd5b83526001969096019591830191830162000440565b50918801519196509093505050808211156200049157600080fd5b50620004a0858286016200034c565b9150509250929050565b604051601f8201601f191681016001600160401b0381118282101715620004d557620004d562000568565b604052919050565b60006001600160401b03821115620004f957620004f962000568565b5060051b60200190565b600082198211156200051957620005196200053c565b500190565b60006000198214156200053557620005356200053c565b5060010190565b634e487b7160e01b600052601160045260246000fd5b634e487b7160e01b600052603260045260246000fd5b634e487b7160e01b600052604160045260246000fd5b610faa806200058e6000396000f3fe60806040526004361061009a5760003560e01c80638b83209b11610069578063ce7c2ac21161004e578063ce7c2ac214610236578063d79779b214610279578063e33b7de3146102bc57600080fd5b80638b83209b146101ae5780639852595c146101f357600080fd5b806319165587146100f55780633a98ef3914610117578063406072a91461013b57806348b750441461018e57600080fd5b366100f0577f6ef95f06320e7a25a04a175ca677b7052bdd97131872c2192525a629f51be770336040805173ffffffffffffffffffffffffffffffffffffffff90921682523460208301520160405180910390a1005b600080fd5b34801561010157600080fd5b50610115610110366004610d03565b6102d1565b005b34801561012357600080fd5b506000545b6040519081526020015b60405180910390f35b34801561014757600080fd5b50610128610156366004610d42565b73ffffffffffffffffffffffffffffffffffffffff918216600090815260066020908152604080832093909416825291909152205490565b34801561019a57600080fd5b506101156101a9366004610d42565b610518565b3480156101ba57600080fd5b506101ce6101c9366004610d7b565b610854565b60405173ffffffffffffffffffffffffffffffffffffffff9091168152602001610132565b3480156101ff57600080fd5b5061012861020e366004610d03565b73ffffffffffffffffffffffffffffffffffffffff1660009081526003602052604090205490565b34801561024257600080fd5b50610128610251366004610d03565b73ffffffffffffffffffffffffffffffffffffffff1660009081526002602052604090205490565b34801561028557600080fd5b50610128610294366004610d03565b73ffffffffffffffffffffffffffffffffffffffff1660009081526005602052604090205490565b3480156102c857600080fd5b50600154610128565b73ffffffffffffffffffffffffffffffffffffffff8116600090815260026020526040902054610388576040517f08c379a000000000000000000000000000000000000000000000000000000000815260206004820152602660248201527f5061796d656e7453706c69747465723a206163636f756e7420686173206e6f2060448201527f736861726573000000000000000000000000000000000000000000000000000060648201526084015b60405180910390fd5b600061039360015490565b61039d9047610e1a565b905060006103d783836103d28673ffffffffffffffffffffffffffffffffffffffff1660009081526003602052604090205490565b610891565b905080610466576040517f08c379a000000000000000000000000000000000000000000000000000000000815260206004820152602b60248201527f5061796d656e7453706c69747465723a206163636f756e74206973206e6f742060448201527f647565207061796d656e74000000000000000000000000000000000000000000606482015260840161037f565b73ffffffffffffffffffffffffffffffffffffffff83166000908152600360205260408120805483929061049b908490610e1a565b9250508190555080600160008282546104b49190610e1a565b909155506104c4905083826108e3565b6040805173ffffffffffffffffffffffffffffffffffffffff85168152602081018390527fdf20fd1e76bc69d672e4814fafb2c449bba3a5369d8359adf9e05e6fde87b056910160405180910390a1505050565b73ffffffffffffffffffffffffffffffffffffffff81166000908152600260205260409020546105ca576040517f08c379a000000000000000000000000000000000000000000000000000000000815260206004820152602660248201527f5061796d656e7453706c69747465723a206163636f756e7420686173206e6f2060448201527f7368617265730000000000000000000000000000000000000000000000000000606482015260840161037f565b73ffffffffffffffffffffffffffffffffffffffff82166000908152600560205260408120546040517f70a0823100000000000000000000000000000000000000000000000000000000815230600482015273ffffffffffffffffffffffffffffffffffffffff8516906370a082319060240160206040518083038186803b15801561065557600080fd5b505afa158015610669573d6000803e3d6000fd5b505050506040513d601f19601f8201168201806040525081019061068d9190610d94565b6106979190610e1a565b905060006106dd83836103d2878773ffffffffffffffffffffffffffffffffffffffff918216600090815260066020908152604080832093909416825291909152205490565b90508061076c576040517f08c379a000000000000000000000000000000000000000000000000000000000815260206004820152602b60248201527f5061796d656e7453706c69747465723a206163636f756e74206973206e6f742060448201527f647565207061796d656e74000000000000000000000000000000000000000000606482015260840161037f565b73ffffffffffffffffffffffffffffffffffffffff8085166000908152600660209081526040808320938716835292905290812080548392906107b0908490610e1a565b909155505073ffffffffffffffffffffffffffffffffffffffff8416600090815260056020526040812080548392906107ea908490610e1a565b909155506107fb9050848483610a42565b6040805173ffffffffffffffffffffffffffffffffffffffff8581168252602082018490528616917f3be5b7a71e84ed12875d241991c70855ac5817d847039e17a9d895c1ceb0f18a910160405180910390a250505050565b60006004828154811061086957610869610f20565b60009182526020909120015473ffffffffffffffffffffffffffffffffffffffff1692915050565b6000805473ffffffffffffffffffffffffffffffffffffffff85168252600260205260408220548391906108c59086610e6d565b6108cf9190610e32565b6108d99190610eaa565b90505b9392505050565b8047101561094d576040517f08c379a000000000000000000000000000000000000000000000000000000000815260206004820152601d60248201527f416464726573733a20696e73756666696369656e742062616c616e6365000000604482015260640161037f565b60008273ffffffffffffffffffffffffffffffffffffffff168260405160006040518083038185875af1925050503d80600081146109a7576040519150601f19603f3d011682016040523d82523d6000602084013e6109ac565b606091505b5050905080610a3d576040517f08c379a000000000000000000000000000000000000000000000000000000000815260206004820152603a60248201527f416464726573733a20756e61626c6520746f2073656e642076616c75652c207260448201527f6563697069656e74206d61792068617665207265766572746564000000000000606482015260840161037f565b505050565b6040805173ffffffffffffffffffffffffffffffffffffffff848116602483015260448083018590528351808403909101815260649092018352602080830180517bffffffffffffffffffffffffffffffffffffffffffffffffffffffff167fa9059cbb0000000000000000000000000000000000000000000000000000000017905283518085019094528084527f5361666545524332303a206c6f772d6c6576656c2063616c6c206661696c656490840152610a3d92869291600091610b0d918516908490610bb7565b805190915015610a3d5780806020019051810190610b2b9190610d20565b610a3d576040517f08c379a000000000000000000000000000000000000000000000000000000000815260206004820152602a60248201527f5361666545524332303a204552433230206f7065726174696f6e20646964206e60448201527f6f74207375636365656400000000000000000000000000000000000000000000606482015260840161037f565b60606108d9848460008585843b610c2a576040517f08c379a000000000000000000000000000000000000000000000000000000000815260206004820152601d60248201527f416464726573733a2063616c6c20746f206e6f6e2d636f6e7472616374000000604482015260640161037f565b6000808673ffffffffffffffffffffffffffffffffffffffff168587604051610c539190610dad565b60006040518083038185875af1925050503d8060008114610c90576040519150601f19603f3d011682016040523d82523d6000602084013e610c95565b606091505b5091509150610ca5828286610cb0565b979650505050505050565b60608315610cbf5750816108dc565b825115610ccf5782518084602001fd5b816040517f08c379a000000000000000000000000000000000000000000000000000000000815260040161037f9190610dc9565b600060208284031215610d1557600080fd5b81356108dc81610f4f565b600060208284031215610d3257600080fd5b815180151581146108dc57600080fd5b60008060408385031215610d5557600080fd5b8235610d6081610f4f565b91506020830135610d7081610f4f565b809150509250929050565b600060208284031215610d8d57600080fd5b5035919050565b600060208284031215610da657600080fd5b5051919050565b60008251610dbf818460208701610ec1565b9190910192915050565b6020815260008251806020840152610de8816040850160208701610ec1565b601f017fffffffffffffffffffffffffffffffffffffffffffffffffffffffffffffffe0169190910160400192915050565b60008219821115610e2d57610e2d610ef1565b500190565b600082610e68577f4e487b7100000000000000000000000000000000000000000000000000000000600052601260045260246000fd5b500490565b6000817fffffffffffffffffffffffffffffffffffffffffffffffffffffffffffffffff0483118215151615610ea557610ea5610ef1565b500290565b600082821015610ebc57610ebc610ef1565b500390565b60005b83811015610edc578181015183820152602001610ec4565b83811115610eeb576000848401525b50505050565b7f4e487b7100000000000000000000000000000000000000000000000000000000600052601160045260246000fd5b7f4e487b7100000000000000000000000000000000000000000000000000000000600052603260045260246000fd5b73ffffffffffffffffffffffffffffffffffffffff81168114610f7157600080fd5b5056fea264697066735822122061ae8c2f4fffe24105752c3d20db7948dee4d202a61fd3f1a4b1817d8bf9fdd464736f6c63430008070033",
  "devdoc": {
    "details": "This contract allows to split Ether payments among a group of accounts. The sender does not need to be aware that the Ether will be split in this way, since it is handled transparently by the contract. The split can be in equal parts or in any other arbitrary proportion. The way this is specified is by assigning each account to a number of shares. Of all the Ether that this contract receives, each account will then be able to claim an amount proportional to the percentage of total shares they were assigned. `PaymentSplitter` follows a _pull payment_ model. This means that payments are not automatically forwarded to the accounts but kept in this contract, and the actual transfer is triggered as a separate step by calling the {release} function. NOTE: This contract assumes that ERC20 tokens will behave similarly to native tokens (Ether). Rebasing tokens, and tokens that apply fees during transfers, are likely to not be supported as expected. If in doubt, we encourage you to run tests before sending real value to this contract.",
    "kind": "dev",
    "methods": {
      "constructor": {
        "details": "Creates an instance of `PaymentSplitter` where each account in `payees` is assigned the number of shares at the matching position in the `shares` array. All addresses in `payees` must be non-zero. Both arrays must have the same non-zero length, and there must be no duplicates in `payees`."
      },
      "payee(uint256)": {
        "details": "Getter for the address of the payee number `index`."
      },
      "release(address)": {
        "details": "Triggers a transfer to `account` of the amount of Ether they are owed, according to their percentage of the total shares and their previous withdrawals."
      },
      "release(address,address)": {
        "details": "Triggers a transfer to `account` of the amount of `token` tokens they are owed, according to their percentage of the total shares and their previous withdrawals. `token` must be the address of an IERC20 contract."
      },
      "released(address)": {
        "details": "Getter for the amount of Ether already released to a payee."
      },
      "released(address,address)": {
        "details": "Getter for the amount of `token` tokens already released to a payee. `token` should be the address of an IERC20 contract."
      },
      "shares(address)": {
        "details": "Getter for the amount of shares held by an account."
      },
      "totalReleased()": {
        "details": "Getter for the total amount of Ether already released."
      },
      "totalReleased(address)": {
        "details": "Getter for the total amount of `token` already released. `token` should be the address of an IERC20 contract."
      },
      "totalShares()": {
        "details": "Getter for the total shares held by payees."
      }
    },
    "title": "PaymentSplitter",
    "version": 1
  },
  "userdoc": {
    "kind": "user",
    "methods": {},
    "version": 1
  },
  "storageLayout": {
    "storage": [
      {
        "astId": 1480,
        "contract": "contracts/utils/ProtocolFeeSplitter.sol:ProtocolFeeSplitter",
        "label": "_totalShares",
        "offset": 0,
        "slot": "0",
        "type": "t_uint256"
      },
      {
        "astId": 1482,
        "contract": "contracts/utils/ProtocolFeeSplitter.sol:ProtocolFeeSplitter",
        "label": "_totalReleased",
        "offset": 0,
        "slot": "1",
        "type": "t_uint256"
      },
      {
        "astId": 1486,
        "contract": "contracts/utils/ProtocolFeeSplitter.sol:ProtocolFeeSplitter",
        "label": "_shares",
        "offset": 0,
        "slot": "2",
        "type": "t_mapping(t_address,t_uint256)"
      },
      {
        "astId": 1490,
        "contract": "contracts/utils/ProtocolFeeSplitter.sol:ProtocolFeeSplitter",
        "label": "_released",
        "offset": 0,
        "slot": "3",
        "type": "t_mapping(t_address,t_uint256)"
      },
      {
        "astId": 1493,
        "contract": "contracts/utils/ProtocolFeeSplitter.sol:ProtocolFeeSplitter",
        "label": "_payees",
        "offset": 0,
        "slot": "4",
        "type": "t_array(t_address)dyn_storage"
      },
      {
        "astId": 1498,
        "contract": "contracts/utils/ProtocolFeeSplitter.sol:ProtocolFeeSplitter",
        "label": "_erc20TotalReleased",
        "offset": 0,
        "slot": "5",
        "type": "t_mapping(t_contract(IERC20)727,t_uint256)"
      },
      {
        "astId": 1505,
        "contract": "contracts/utils/ProtocolFeeSplitter.sol:ProtocolFeeSplitter",
        "label": "_erc20Released",
        "offset": 0,
        "slot": "6",
        "type": "t_mapping(t_contract(IERC20)727,t_mapping(t_address,t_uint256))"
      }
    ],
    "types": {
      "t_address": {
        "encoding": "inplace",
        "label": "address",
        "numberOfBytes": "20"
      },
      "t_array(t_address)dyn_storage": {
        "base": "t_address",
        "encoding": "dynamic_array",
        "label": "address[]",
        "numberOfBytes": "32"
      },
      "t_contract(IERC20)727": {
        "encoding": "inplace",
        "label": "contract IERC20",
        "numberOfBytes": "20"
      },
      "t_mapping(t_address,t_uint256)": {
        "encoding": "mapping",
        "key": "t_address",
        "label": "mapping(address => uint256)",
        "numberOfBytes": "32",
        "value": "t_uint256"
      },
      "t_mapping(t_contract(IERC20)727,t_mapping(t_address,t_uint256))": {
        "encoding": "mapping",
        "key": "t_contract(IERC20)727",
        "label": "mapping(contract IERC20 => mapping(address => uint256))",
        "numberOfBytes": "32",
        "value": "t_mapping(t_address,t_uint256)"
      },
      "t_mapping(t_contract(IERC20)727,t_uint256)": {
        "encoding": "mapping",
        "key": "t_contract(IERC20)727",
        "label": "mapping(contract IERC20 => uint256)",
        "numberOfBytes": "32",
        "value": "t_uint256"
      },
      "t_uint256": {
        "encoding": "inplace",
        "label": "uint256",
        "numberOfBytes": "32"
      }
    }
  }
}