{
  "address": "0xdcD6D4e2B3e1D1E1E6Fa8C21C8A323DcbecfF970",
  "abi": [
    {
      "anonymous": false,
      "inputs": [
        {
          "indexed": true,
          "internalType": "address",
          "name": "_owner",
          "type": "address"
        },
        {
          "indexed": true,
          "internalType": "address",
          "name": "_spender",
          "type": "address"
        },
        {
          "indexed": false,
          "internalType": "uint256",
          "name": "_value",
          "type": "uint256"
        }
      ],
      "name": "Approval",
      "type": "event"
    },
    {
      "anonymous": false,
      "inputs": [
        {
          "indexed": true,
          "internalType": "address",
          "name": "previousOwner",
          "type": "address"
        },
        {
          "indexed": true,
          "internalType": "address",
          "name": "newOwner",
          "type": "address"
        }
      ],
      "name": "OwnershipTransferred",
      "type": "event"
    },
    {
      "anonymous": false,
      "inputs": [
        {
          "indexed": true,
          "internalType": "address",
          "name": "_from",
          "type": "address"
        },
        {
          "indexed": true,
          "internalType": "address",
          "name": "_to",
          "type": "address"
        },
        {
          "indexed": false,
          "internalType": "uint256",
          "name": "_value",
          "type": "uint256"
        }
      ],
      "name": "Transfer",
      "type": "event"
    },
    {
      "inputs": [],
      "name": "DOMAIN_SEPARATOR",
      "outputs": [
        {
          "internalType": "bytes32",
          "name": "",
          "type": "bytes32"
        }
      ],
      "stateMutability": "view",
      "type": "function"
    },
    {
      "inputs": [],
      "name": "MAX_SUPPLY",
      "outputs": [
        {
          "internalType": "uint256",
          "name": "",
          "type": "uint256"
        }
      ],
      "stateMutability": "view",
      "type": "function"
    },
    {
      "inputs": [
        {
          "internalType": "address",
          "name": "",
          "type": "address"
        },
        {
          "internalType": "address",
          "name": "",
          "type": "address"
        }
      ],
      "name": "allowance",
      "outputs": [
        {
          "internalType": "uint256",
          "name": "",
          "type": "uint256"
        }
      ],
      "stateMutability": "view",
      "type": "function"
    },
    {
      "inputs": [
        {
          "internalType": "address",
          "name": "spender",
          "type": "address"
        },
        {
          "internalType": "uint256",
          "name": "amount",
          "type": "uint256"
        }
      ],
      "name": "approve",
      "outputs": [
        {
          "internalType": "bool",
          "name": "",
          "type": "bool"
        }
      ],
      "stateMutability": "nonpayable",
      "type": "function"
    },
    {
      "inputs": [
        {
          "internalType": "address",
          "name": "",
          "type": "address"
        }
      ],
      "name": "balanceOf",
      "outputs": [
        {
          "internalType": "uint256",
          "name": "",
          "type": "uint256"
        }
      ],
      "stateMutability": "view",
      "type": "function"
    },
    {
      "inputs": [],
      "name": "claimOwnership",
      "outputs": [],
      "stateMutability": "nonpayable",
      "type": "function"
    },
    {
      "inputs": [],
      "name": "decimals",
      "outputs": [
        {
          "internalType": "uint8",
          "name": "",
          "type": "uint8"
        }
      ],
      "stateMutability": "view",
      "type": "function"
    },
    {
      "inputs": [
        {
          "internalType": "address",
          "name": "to",
          "type": "address"
        },
        {
          "internalType": "uint256",
          "name": "amount",
          "type": "uint256"
        }
      ],
      "name": "mint",
      "outputs": [],
      "stateMutability": "nonpayable",
      "type": "function"
    },
    {
      "inputs": [],
      "name": "name",
      "outputs": [
        {
          "internalType": "string",
          "name": "",
          "type": "string"
        }
      ],
      "stateMutability": "view",
      "type": "function"
    },
    {
      "inputs": [
        {
          "internalType": "address",
          "name": "",
          "type": "address"
        }
      ],
      "name": "nonces",
      "outputs": [
        {
          "internalType": "uint256",
          "name": "",
          "type": "uint256"
        }
      ],
      "stateMutability": "view",
      "type": "function"
    },
    {
      "inputs": [],
      "name": "owner",
      "outputs": [
        {
          "internalType": "address",
          "name": "",
          "type": "address"
        }
      ],
      "stateMutability": "view",
      "type": "function"
    },
    {
      "inputs": [],
      "name": "pendingOwner",
      "outputs": [
        {
          "internalType": "address",
          "name": "",
          "type": "address"
        }
      ],
      "stateMutability": "view",
      "type": "function"
    },
    {
      "inputs": [
        {
          "internalType": "address",
          "name": "owner_",
          "type": "address"
        },
        {
          "internalType": "address",
          "name": "spender",
          "type": "address"
        },
        {
          "internalType": "uint256",
          "name": "value",
          "type": "uint256"
        },
        {
          "internalType": "uint256",
          "name": "deadline",
          "type": "uint256"
        },
        {
          "internalType": "uint8",
          "name": "v",
          "type": "uint8"
        },
        {
          "internalType": "bytes32",
          "name": "r",
          "type": "bytes32"
        },
        {
          "internalType": "bytes32",
          "name": "s",
          "type": "bytes32"
        }
      ],
      "name": "permit",
      "outputs": [],
      "stateMutability": "nonpayable",
      "type": "function"
    },
    {
      "inputs": [],
      "name": "symbol",
      "outputs": [
        {
          "internalType": "string",
          "name": "",
          "type": "string"
        }
      ],
      "stateMutability": "view",
      "type": "function"
    },
    {
      "inputs": [],
      "name": "totalSupply",
      "outputs": [
        {
          "internalType": "uint256",
          "name": "",
          "type": "uint256"
        }
      ],
      "stateMutability": "view",
      "type": "function"
    },
    {
      "inputs": [
        {
          "internalType": "address",
          "name": "to",
          "type": "address"
        },
        {
          "internalType": "uint256",
          "name": "amount",
          "type": "uint256"
        }
      ],
      "name": "transfer",
      "outputs": [
        {
          "internalType": "bool",
          "name": "",
          "type": "bool"
        }
      ],
      "stateMutability": "nonpayable",
      "type": "function"
    },
    {
      "inputs": [
        {
          "internalType": "address",
          "name": "from",
          "type": "address"
        },
        {
          "internalType": "address",
          "name": "to",
          "type": "address"
        },
        {
          "internalType": "uint256",
          "name": "amount",
          "type": "uint256"
        }
      ],
      "name": "transferFrom",
      "outputs": [
        {
          "internalType": "bool",
          "name": "",
          "type": "bool"
        }
      ],
      "stateMutability": "nonpayable",
      "type": "function"
    },
    {
      "inputs": [
        {
          "internalType": "address",
          "name": "newOwner",
          "type": "address"
        },
        {
          "internalType": "bool",
          "name": "direct",
          "type": "bool"
        },
        {
          "internalType": "bool",
          "name": "renounce",
          "type": "bool"
        }
      ],
      "name": "transferOwnership",
      "outputs": [],
      "stateMutability": "nonpayable",
      "type": "function"
    }
  ],
  "transactionHash": "0xe8537405ebe87e3327e4fd7f387878d5512ded6ed4309dded77bb0eab9c5c557",
  "args": [],
  "solcInputHash": "c9105326d87786310238360c5050b5c8",
  "bytecode": "0x60c060405234801561001057600080fd5b504660a081905261002081610069565b60805250600380546001600160a01b031916339081179091556040516000907f8be0079c531659141344cd1fd0a4f28419497f9722a3daafe3b4186f6b6457e0908290a36100c2565b604080517f47e79534a245952e8b16893a336b85a3d9ea9fa8c573f3d803afb92a794692186020808301919091528183019390935230606080830191909152825180830390910181526080909101909152805191012090565b60805160a0516115316100e5600039806112e252508061131752506115316000f3fe608060405234801561001057600080fd5b50600436106101365760003560e01c80634e71e0c8116100b257806395d89b4111610081578063d505accf11610066578063d505accf146103ee578063dd62ed3e1461044c578063e30c39781461048757610136565b806395d89b41146103ad578063a9059cbb146103b557610136565b80634e71e0c81461030e57806370a08231146103165780637ecebe00146103495780638da5cb5b1461037c57610136565b806323b872dd1161010957806332cb6b0c116100ee57806332cb6b0c146102c55780633644e515146102cd57806340c10f19146102d557610136565b806323b872dd14610264578063313ce567146102a757610136565b806306fdde031461013b578063078dfbe7146101b8578063095ea7b3146101fd57806318160ddd1461024a575b600080fd5b61014361048f565b6040805160208082528351818301528351919283929083019185019080838360005b8381101561017d578181015183820152602001610165565b50505050905090810190601f1680156101aa5780820380516001836020036101000a031916815260200191505b509250505060405180910390f35b6101fb600480360360608110156101ce57600080fd5b5073ffffffffffffffffffffffffffffffffffffffff8135169060208101351515906040013515156104c8565b005b6102366004803603604081101561021357600080fd5b5073ffffffffffffffffffffffffffffffffffffffff81351690602001356106be565b604080519115158252519081900360200190f35b610252610732565b60408051918252519081900360200190f35b6102366004803603606081101561027a57600080fd5b5073ffffffffffffffffffffffffffffffffffffffff813581169160208101359091169060400135610738565b6102af610a32565b6040805160ff9092168252519081900360200190f35b610252610a37565b610252610a47565b6101fb600480360360408110156102eb57600080fd5b5073ffffffffffffffffffffffffffffffffffffffff8135169060200135610a56565b6101fb610c4f565b6102526004803603602081101561032c57600080fd5b503573ffffffffffffffffffffffffffffffffffffffff16610d6b565b6102526004803603602081101561035f57600080fd5b503573ffffffffffffffffffffffffffffffffffffffff16610d7d565b610384610d8f565b6040805173ffffffffffffffffffffffffffffffffffffffff9092168252519081900360200190f35b610143610dab565b610236600480360360408110156103cb57600080fd5b5073ffffffffffffffffffffffffffffffffffffffff8135169060200135610de4565b6101fb600480360360e081101561040457600080fd5b5073ffffffffffffffffffffffffffffffffffffffff813581169160208101359091169060408101359060608101359060ff6080820135169060a08101359060c00135610fbb565b6102526004803603604081101561046257600080fd5b5073ffffffffffffffffffffffffffffffffffffffff813581169160200135166112a4565b6103846112c1565b6040518060400160405280600a81526020017f526f736520546f6b656e0000000000000000000000000000000000000000000081525081565b60035473ffffffffffffffffffffffffffffffffffffffff16331461054e57604080517f08c379a000000000000000000000000000000000000000000000000000000000815260206004820181905260248201527f4f776e61626c653a2063616c6c6572206973206e6f7420746865206f776e6572604482015290519081900360640190fd5b81156106785773ffffffffffffffffffffffffffffffffffffffff83161515806105755750805b6105e057604080517f08c379a000000000000000000000000000000000000000000000000000000000815260206004820152601560248201527f4f776e61626c653a207a65726f20616464726573730000000000000000000000604482015290519081900360640190fd5b60035460405173ffffffffffffffffffffffffffffffffffffffff8086169216907f8be0079c531659141344cd1fd0a4f28419497f9722a3daafe3b4186f6b6457e090600090a36003805473ffffffffffffffffffffffffffffffffffffffff85167fffffffffffffffffffffffff0000000000000000000000000000000000000000918216179091556004805490911690556106b9565b600480547fffffffffffffffffffffffff00000000000000000000000000000000000000001673ffffffffffffffffffffffffffffffffffffffff85161790555b505050565b33600081815260016020908152604080832073ffffffffffffffffffffffffffffffffffffffff8716808552908352818420869055815186815291519394909390927f8c5be1e5ebec7d5bd14f71427d1e84f3dd0314c0f7b2291e5b200ac8c7c3b925928290030190a35060015b92915050565b60055481565b600081156109c35773ffffffffffffffffffffffffffffffffffffffff8416600090815260208190526040902054828110156107d557604080517f08c379a000000000000000000000000000000000000000000000000000000000815260206004820152601660248201527f45524332303a2062616c616e636520746f6f206c6f7700000000000000000000604482015290519081900360640190fd5b8373ffffffffffffffffffffffffffffffffffffffff168573ffffffffffffffffffffffffffffffffffffffff16146109c15773ffffffffffffffffffffffffffffffffffffffff851660009081526001602090815260408083203384529091529020547fffffffffffffffffffffffffffffffffffffffffffffffffffffffffffffffff811461090557838110156108cf57604080517f08c379a000000000000000000000000000000000000000000000000000000000815260206004820152601860248201527f45524332303a20616c6c6f77616e636520746f6f206c6f770000000000000000604482015290519081900360640190fd5b73ffffffffffffffffffffffffffffffffffffffff86166000908152600160209081526040808320338452909152902084820390555b73ffffffffffffffffffffffffffffffffffffffff851661098757604080517f08c379a000000000000000000000000000000000000000000000000000000000815260206004820152601660248201527f45524332303a206e6f207a65726f206164647265737300000000000000000000604482015290519081900360640190fd5b5073ffffffffffffffffffffffffffffffffffffffff80861660009081526020819052604080822086850390559186168152208054840190555b505b8273ffffffffffffffffffffffffffffffffffffffff168473ffffffffffffffffffffffffffffffffffffffff167fddf252ad1be2c89b69c2b068fc378daa952ba7f163c4a11628f55a4df523b3ef846040518082815260200191505060405180910390a35060019392505050565b601281565b6b033b2e3c9fd0803ce800000081565b6000610a516112dd565b905090565b60035473ffffffffffffffffffffffffffffffffffffffff163314610adc57604080517f08c379a000000000000000000000000000000000000000000000000000000000815260206004820181905260248201527f4f776e61626c653a2063616c6c6572206973206e6f7420746865206f776e6572604482015290519081900360640190fd5b73ffffffffffffffffffffffffffffffffffffffff8216610b5e57604080517f08c379a000000000000000000000000000000000000000000000000000000000815260206004820152601d60248201527f524f53453a206e6f206d696e7420746f207a65726f2061646472657373000000604482015290519081900360640190fd5b600554610b6b908261133d565b6b033b2e3c9fd0803ce80000001015610be557604080517f08c379a000000000000000000000000000000000000000000000000000000000815260206004820152601760248201527f524f53453a20446f6e277420676f206f766572204d4158000000000000000000604482015290519081900360640190fd5b600580548201905573ffffffffffffffffffffffffffffffffffffffff8216600081815260208181526040808320805486019055805185815290517fddf252ad1be2c89b69c2b068fc378daa952ba7f163c4a11628f55a4df523b3ef929181900390910190a35050565b60045473ffffffffffffffffffffffffffffffffffffffff16338114610cd657604080517f08c379a000000000000000000000000000000000000000000000000000000000815260206004820181905260248201527f4f776e61626c653a2063616c6c657220213d2070656e64696e67206f776e6572604482015290519081900360640190fd5b60035460405173ffffffffffffffffffffffffffffffffffffffff8084169216907f8be0079c531659141344cd1fd0a4f28419497f9722a3daafe3b4186f6b6457e090600090a36003805473ffffffffffffffffffffffffffffffffffffffff9092167fffffffffffffffffffffffff0000000000000000000000000000000000000000928316179055600480549091169055565b60006020819052908152604090205481565b60026020526000908152604090205481565b60035473ffffffffffffffffffffffffffffffffffffffff1681565b6040518060400160405280600481526020017f524f53450000000000000000000000000000000000000000000000000000000081525081565b600081151580610e0957503373ffffffffffffffffffffffffffffffffffffffff8416145b15610f65573360009081526020819052604090205482811015610e8d57604080517f08c379a000000000000000000000000000000000000000000000000000000000815260206004820152601660248201527f45524332303a2062616c616e636520746f6f206c6f7700000000000000000000604482015290519081900360640190fd5b3373ffffffffffffffffffffffffffffffffffffffff851614610f635773ffffffffffffffffffffffffffffffffffffffff8416610f2c57604080517f08c379a000000000000000000000000000000000000000000000000000000000815260206004820152601660248201527f45524332303a206e6f207a65726f206164647265737300000000000000000000604482015290519081900360640190fd5b33600090815260208190526040808220858403905573ffffffffffffffffffffffffffffffffffffffff8616825290208054840190555b505b60408051838152905173ffffffffffffffffffffffffffffffffffffffff85169133917fddf252ad1be2c89b69c2b068fc378daa952ba7f163c4a11628f55a4df523b3ef9181900360200190a350600192915050565b73ffffffffffffffffffffffffffffffffffffffff871661103d57604080517f08c379a000000000000000000000000000000000000000000000000000000000815260206004820152601860248201527f45524332303a204f776e65722063616e6e6f7420626520300000000000000000604482015290519081900360640190fd5b8342106110ab57604080517f08c379a000000000000000000000000000000000000000000000000000000000815260206004820152600e60248201527f45524332303a2045787069726564000000000000000000000000000000000000604482015290519081900360640190fd5b73ffffffffffffffffffffffffffffffffffffffff8088166000818152600260209081526040918290208054600181810190925583517f6e71edae12b1b97f4d1f60370fef10105fa2faae0126114a169c64845d6126c981850152808501869052958c166060870152608086018b905260a086015260c08086018a90528351808703909101815260e0909501909252835193019290922090919061114e906113af565b85858560405160008152602001604052604051808581526020018460ff1681526020018381526020018281526020019450505050506020604051602081039080840390855afa1580156111a5573d6000803e3d6000fd5b5050506020604051035173ffffffffffffffffffffffffffffffffffffffff161461123157604080517f08c379a000000000000000000000000000000000000000000000000000000000815260206004820152601860248201527f45524332303a20496e76616c6964205369676e61747572650000000000000000604482015290519081900360640190fd5b73ffffffffffffffffffffffffffffffffffffffff8088166000818152600160209081526040808320948b1680845294825291829020899055815189815291517f8c5be1e5ebec7d5bd14f71427d1e84f3dd0314c0f7b2291e5b200ac8c7c3b9259281900390910190a350505050505050565b600160209081526000928352604080842090915290825290205481565b60045473ffffffffffffffffffffffffffffffffffffffff1681565b6000467f0000000000000000000000000000000000000000000000000000000000000000811461131557611310816114a2565b611337565b7f00000000000000000000000000000000000000000000000000000000000000005b91505090565b8181018181101561072c57604080517f08c379a000000000000000000000000000000000000000000000000000000000815260206004820152601860248201527f426f72696e674d6174683a20416464204f766572666c6f770000000000000000604482015290519081900360640190fd5b60006040518060400160405280600281526020017f19010000000000000000000000000000000000000000000000000000000000008152506113ef6112dd565b836040516020018084805190602001908083835b6020831061144057805182527fffffffffffffffffffffffffffffffffffffffffffffffffffffffffffffffe09092019160209182019101611403565b51815160209384036101000a7fffffffffffffffffffffffffffffffffffffffffffffffffffffffffffffffff018019909216911617905292019485525083810192909252506040805180840383018152928101905281519101209392505050565b604080517f47e79534a245952e8b16893a336b85a3d9ea9fa8c573f3d803afb92a79469218602080830191909152818301939093523060608083019190915282518083039091018152608090910190915280519101209056fea2646970667358221220a857f8f7492991ae3bc8d4fbe0828f3190bb94e34f2b1bacc53b341a3bdd4ecf64736f6c634300060c0033",
  "devdoc": {
    "kind": "dev",
    "methods": {
      "approve(address,uint256)": {
        "params": {
          "amount": "The maximum collective amount that `spender` can draw.",
          "spender": "Address of the party that can draw from msg.sender's account."
        },
        "returns": {
          "_0": "(bool) Returns True if approved."
        }
      },
      "permit(address,address,uint256,uint256,uint8,bytes32,bytes32)": {
        "params": {
          "deadline": "This permit must be redeemed before this deadline (UTC timestamp in seconds).",
          "owner_": "Address of the owner.",
          "spender": "The address of the spender that gets approved to draw from `owner_`.",
          "value": "The maximum collective amount that `spender` can draw."
        }
      },
      "transfer(address,uint256)": {
        "params": {
          "amount": "of the tokens to move.",
          "to": "The address to move the tokens."
        },
        "returns": {
          "_0": "(bool) Returns True if succeeded."
        }
      },
      "transferFrom(address,address,uint256)": {
        "params": {
          "amount": "The token amount to move.",
          "from": "Address to draw tokens from.",
          "to": "The address to move the tokens."
        },
        "returns": {
          "_0": "(bool) Returns True if succeeded."
        }
      },
      "transferOwnership(address,bool,bool)": {
        "params": {
          "direct": "True if `newOwner` should be set immediately. False if `newOwner` needs to use `claimOwnership`.",
          "newOwner": "Address of the new owner.",
          "renounce": "Allows the `newOwner` to be `address(0)` if `direct` and `renounce` is True. Has no effect otherwise."
        }
      }
    },
    "version": 1
  },
  "userdoc": {
    "kind": "user",
    "methods": {
      "allowance(address,address)": {
        "notice": "owner > spender > allowance mapping."
      },
      "approve(address,uint256)": {
        "notice": "Approves `amount` from sender to be spend by `spender`."
      },
      "balanceOf(address)": {
        "notice": "owner > balance mapping."
      },
      "claimOwnership()": {
        "notice": "Needs to be called by `pendingOwner` to claim ownership."
      },
      "nonces(address)": {
        "notice": "owner > nonce mapping. Used in `permit`."
      },
      "permit(address,address,uint256,uint256,uint8,bytes32,bytes32)": {
        "notice": "Approves `value` from `owner_` to be spend by `spender`."
      },
      "transfer(address,uint256)": {
        "notice": "Transfers `amount` tokens from `msg.sender` to `to`."
      },
      "transferFrom(address,address,uint256)": {
        "notice": "Transfers `amount` tokens from `from` to `to`. Caller needs approval for `from`."
      },
      "transferOwnership(address,bool,bool)": {
        "notice": "Transfers ownership to `newOwner`. Either directly or claimable by the new pending owner. Can only be invoked by the current `owner`."
      }
    },
    "version": 1
  },
  "storageLayout": {
    "storage": [
      {
        "astId": 368,
        "contract": "contracts/tokens/Rose.sol:Rose",
        "label": "balanceOf",
        "offset": 0,
        "slot": "0",
        "type": "t_mapping(t_address,t_uint256)"
      },
      {
        "astId": 376,
        "contract": "contracts/tokens/Rose.sol:Rose",
        "label": "allowance",
        "offset": 0,
        "slot": "1",
        "type": "t_mapping(t_address,t_mapping(t_address,t_uint256))"
      },
      {
        "astId": 381,
        "contract": "contracts/tokens/Rose.sol:Rose",
        "label": "nonces",
        "offset": 0,
        "slot": "2",
        "type": "t_mapping(t_address,t_uint256)"
      },
      {
        "astId": 118,
        "contract": "contracts/tokens/Rose.sol:Rose",
        "label": "owner",
        "offset": 0,
        "slot": "3",
        "type": "t_address"
      },
      {
        "astId": 120,
        "contract": "contracts/tokens/Rose.sol:Rose",
        "label": "pendingOwner",
        "offset": 0,
        "slot": "4",
        "type": "t_address"
      },
      {
        "astId": 3487,
        "contract": "contracts/tokens/Rose.sol:Rose",
        "label": "totalSupply",
        "offset": 0,
        "slot": "5",
        "type": "t_uint256"
      }
    ],
    "types": {
      "t_address": {
        "encoding": "inplace",
        "label": "address",
        "numberOfBytes": "20"
      },
      "t_mapping(t_address,t_mapping(t_address,t_uint256))": {
        "encoding": "mapping",
        "key": "t_address",
        "label": "mapping(address => mapping(address => uint256))",
        "numberOfBytes": "32",
        "value": "t_mapping(t_address,t_uint256)"
      },
      "t_mapping(t_address,t_uint256)": {
        "encoding": "mapping",
        "key": "t_address",
        "label": "mapping(address => uint256)",
        "numberOfBytes": "32",
        "value": "t_uint256"
      },
      "t_uint256": {
        "encoding": "inplace",
        "label": "uint256",
        "numberOfBytes": "32"
      }
    }
  }
}