{
  "address": "0xc90dB0d8713414d78523436dC347419164544A3f",
  "abi": [
    {
      "name": "TokenExchange",
      "inputs": [
        {
          "type": "address",
          "name": "buyer",
          "indexed": true
        },
        {
          "type": "int128",
          "name": "sold_id",
          "indexed": false
        },
        {
          "type": "uint256",
          "name": "tokens_sold",
          "indexed": false
        },
        {
          "type": "int128",
          "name": "bought_id",
          "indexed": false
        },
        {
          "type": "uint256",
          "name": "tokens_bought",
          "indexed": false
        }
      ],
      "anonymous": false,
      "type": "event"
    },
    {
      "name": "AddLiquidity",
      "inputs": [
        {
          "type": "address",
          "name": "provider",
          "indexed": true
        },
        {
          "type": "uint256[3]",
          "name": "token_amounts",
          "indexed": false
        },
        {
          "type": "uint256[3]",
          "name": "fees",
          "indexed": false
        },
        {
          "type": "uint256",
          "name": "invariant",
          "indexed": false
        },
        {
          "type": "uint256",
          "name": "token_supply",
          "indexed": false
        }
      ],
      "anonymous": false,
      "type": "event"
    },
    {
      "name": "RemoveLiquidity",
      "inputs": [
        {
          "type": "address",
          "name": "provider",
          "indexed": true
        },
        {
          "type": "uint256[3]",
          "name": "token_amounts",
          "indexed": false
        },
        {
          "type": "uint256[3]",
          "name": "fees",
          "indexed": false
        },
        {
          "type": "uint256",
          "name": "token_supply",
          "indexed": false
        }
      ],
      "anonymous": false,
      "type": "event"
    },
    {
      "name": "RemoveLiquidityOne",
      "inputs": [
        {
          "type": "address",
          "name": "provider",
          "indexed": true
        },
        {
          "type": "uint256",
          "name": "token_amount",
          "indexed": false
        },
        {
          "type": "uint256",
          "name": "coin_amount",
          "indexed": false
        }
      ],
      "anonymous": false,
      "type": "event"
    },
    {
      "name": "RemoveLiquidityImbalance",
      "inputs": [
        {
          "type": "address",
          "name": "provider",
          "indexed": true
        },
        {
          "type": "uint256[3]",
          "name": "token_amounts",
          "indexed": false
        },
        {
          "type": "uint256[3]",
          "name": "fees",
          "indexed": false
        },
        {
          "type": "uint256",
          "name": "invariant",
          "indexed": false
        },
        {
          "type": "uint256",
          "name": "token_supply",
          "indexed": false
        }
      ],
      "anonymous": false,
      "type": "event"
    },
    {
      "name": "CommitNewAdmin",
      "inputs": [
        {
          "type": "uint256",
          "name": "deadline",
          "indexed": true
        },
        {
          "type": "address",
          "name": "admin",
          "indexed": true
        }
      ],
      "anonymous": false,
      "type": "event"
    },
    {
      "name": "NewAdmin",
      "inputs": [
        {
          "type": "address",
          "name": "admin",
          "indexed": true
        }
      ],
      "anonymous": false,
      "type": "event"
    },
    {
      "name": "TransferFeeReceiver",
      "inputs": [
        {
          "type": "address",
          "name": "fee_receiver",
          "indexed": true
        }
      ],
      "anonymous": false,
      "type": "event"
    },
    {
      "name": "CommitNewFee",
      "inputs": [
        {
          "type": "uint256",
          "name": "deadline",
          "indexed": true
        },
        {
          "type": "uint256",
          "name": "fee",
          "indexed": false
        },
        {
          "type": "uint256",
          "name": "protocol_fee",
          "indexed": false
        }
      ],
      "anonymous": false,
      "type": "event"
    },
    {
      "name": "NewFee",
      "inputs": [
        {
          "type": "uint256",
          "name": "fee",
          "indexed": false
        },
        {
          "type": "uint256",
          "name": "protocol_fee",
          "indexed": false
        }
      ],
      "anonymous": false,
      "type": "event"
    },
    {
      "name": "RampA",
      "inputs": [
        {
          "type": "uint256",
          "name": "old_A",
          "indexed": false
        },
        {
          "type": "uint256",
          "name": "new_A",
          "indexed": false
        },
        {
          "type": "uint256",
          "name": "initial_time",
          "indexed": false
        },
        {
          "type": "uint256",
          "name": "future_time",
          "indexed": false
        }
      ],
      "anonymous": false,
      "type": "event"
    },
    {
      "name": "StopRampA",
      "inputs": [
        {
          "type": "uint256",
          "name": "A",
          "indexed": false
        },
        {
          "type": "uint256",
          "name": "t",
          "indexed": false
        }
      ],
      "anonymous": false,
      "type": "event"
    },
    {
      "outputs": [],
      "inputs": [
        {
          "type": "address",
          "name": "_owner"
        },
        {
          "type": "address",
          "name": "_fee_receiver"
        },
        {
          "type": "address[3]",
          "name": "_coins"
        },
        {
          "type": "address",
          "name": "_pool_token"
        },
        {
          "type": "uint256",
          "name": "_A"
        },
        {
          "type": "uint256",
          "name": "_fee"
        },
        {
          "type": "uint256",
          "name": "_protocol_fee"
        }
      ],
      "stateMutability": "nonpayable",
      "type": "constructor"
    },
    {
      "name": "A",
      "outputs": [
        {
          "type": "uint256",
          "name": ""
        }
      ],
      "inputs": [],
      "stateMutability": "view",
      "type": "function",
      "gas": 5131
    },
    {
      "name": "get_virtual_price",
      "outputs": [
        {
          "type": "uint256",
          "name": ""
        }
      ],
      "inputs": [],
      "stateMutability": "view",
      "type": "function",
      "gas": 1133080
    },
    {
      "name": "calc_token_amount",
      "outputs": [
        {
          "type": "uint256",
          "name": ""
        }
      ],
      "inputs": [
        {
          "type": "uint256[3]",
          "name": "amounts"
        },
        {
          "type": "bool",
          "name": "deposit"
        }
      ],
      "stateMutability": "view",
      "type": "function",
      "gas": 4507414
    },
    {
      "name": "add_liquidity",
      "outputs": [],
      "inputs": [
        {
          "type": "uint256[3]",
          "name": "amounts"
        },
        {
          "type": "uint256",
          "name": "min_mint_amount"
        }
      ],
      "stateMutability": "nonpayable",
      "type": "function",
      "gas": 6949707
    },
    {
      "name": "get_dy",
      "outputs": [
        {
          "type": "uint256",
          "name": ""
        }
      ],
      "inputs": [
        {
          "type": "int128",
          "name": "i"
        },
        {
          "type": "int128",
          "name": "j"
        },
        {
          "type": "uint256",
          "name": "dx"
        }
      ],
      "stateMutability": "view",
      "type": "function",
      "gas": 2673213
    },
    {
      "name": "get_dy_underlying",
      "outputs": [
        {
          "type": "uint256",
          "name": ""
        }
      ],
      "inputs": [
        {
          "type": "int128",
          "name": "i"
        },
        {
          "type": "int128",
          "name": "j"
        },
        {
          "type": "uint256",
          "name": "dx"
        }
      ],
      "stateMutability": "view",
      "type": "function",
      "gas": 2672915
    },
    {
      "name": "exchange",
      "outputs": [],
      "inputs": [
        {
          "type": "int128",
          "name": "i"
        },
        {
          "type": "int128",
          "name": "j"
        },
        {
          "type": "uint256",
          "name": "dx"
        },
        {
          "type": "uint256",
          "name": "min_dy"
        }
      ],
      "stateMutability": "nonpayable",
      "type": "function",
      "gas": 2816299
    },
    {
      "name": "remove_liquidity",
      "outputs": [],
      "inputs": [
        {
          "type": "uint256",
          "name": "_amount"
        },
        {
          "type": "uint256[3]",
          "name": "min_amounts"
        }
      ],
      "stateMutability": "nonpayable",
      "type": "function",
      "gas": 192572
    },
    {
      "name": "remove_liquidity_imbalance",
      "outputs": [],
      "inputs": [
        {
          "type": "uint256[3]",
          "name": "amounts"
        },
        {
          "type": "uint256",
          "name": "max_burn_amount"
        }
      ],
      "stateMutability": "nonpayable",
      "type": "function",
      "gas": 6949525
    },
    {
      "name": "calc_withdraw_one_coin",
      "outputs": [
        {
          "type": "uint256",
          "name": ""
        }
      ],
      "inputs": [
        {
          "type": "uint256",
          "name": "_token_amount"
        },
        {
          "type": "int128",
          "name": "i"
        }
      ],
      "stateMutability": "view",
      "type": "function",
      "gas": 1375
    },
    {
      "name": "remove_liquidity_one_coin",
      "outputs": [],
      "inputs": [
        {
          "type": "uint256",
          "name": "_token_amount"
        },
        {
          "type": "int128",
          "name": "i"
        },
        {
          "type": "uint256",
          "name": "min_amount"
        }
      ],
      "stateMutability": "nonpayable",
      "type": "function",
      "gas": 4024585
    },
    {
      "name": "ramp_A",
      "outputs": [],
      "inputs": [
        {
          "type": "uint256",
          "name": "_future_A"
        },
        {
          "type": "uint256",
          "name": "_future_time"
        }
      ],
      "stateMutability": "nonpayable",
      "type": "function",
      "gas": 151817
    },
    {
      "name": "stop_ramp_A",
      "outputs": [],
      "inputs": [],
      "stateMutability": "nonpayable",
      "type": "function",
      "gas": 148535
    },
    {
      "name": "commit_new_fee",
      "outputs": [],
      "inputs": [
        {
          "type": "uint256",
          "name": "new_fee"
        },
        {
          "type": "uint256",
          "name": "new_protocol_fee"
        }
      ],
      "stateMutability": "nonpayable",
      "type": "function",
      "gas": 110371
    },
    {
      "name": "apply_new_fee",
      "outputs": [],
      "inputs": [],
      "stateMutability": "nonpayable",
      "type": "function",
      "gas": 97152
    },
    {
      "name": "revert_new_parameters",
      "outputs": [],
      "inputs": [],
      "stateMutability": "nonpayable",
      "type": "function",
      "gas": 21805
    },
    {
      "name": "commit_transfer_ownership",
      "outputs": [],
      "inputs": [
        {
          "type": "address",
          "name": "_owner"
        }
      ],
      "stateMutability": "nonpayable",
      "type": "function",
      "gas": 74543
    },
    {
      "name": "apply_transfer_ownership",
      "outputs": [],
      "inputs": [],
      "stateMutability": "nonpayable",
      "type": "function",
      "gas": 60620
    },
    {
      "name": "revert_transfer_ownership",
      "outputs": [],
      "inputs": [],
      "stateMutability": "nonpayable",
      "type": "function",
      "gas": 21895
    },
    {
      "name": "transfer_fee_receiver",
      "outputs": [],
      "inputs": [
        {
          "type": "address",
          "name": "_receiver"
        }
      ],
      "stateMutability": "nonpayable",
      "type": "function",
      "gas": 38168
    },
    {
      "name": "protocol_balances",
      "outputs": [
        {
          "type": "uint256",
          "name": ""
        }
      ],
      "inputs": [
        {
          "type": "uint256",
          "name": "i"
        }
      ],
      "stateMutability": "view",
      "type": "function",
      "gas": 3421
    },
    {
      "name": "withdraw_protocol_fees",
      "outputs": [],
      "inputs": [],
      "stateMutability": "nonpayable",
      "type": "function",
      "gas": 22937
    },
    {
      "name": "kill_me",
      "outputs": [],
      "inputs": [],
      "stateMutability": "nonpayable",
      "type": "function",
      "gas": 37908
    },
    {
      "name": "unkill_me",
      "outputs": [],
      "inputs": [],
      "stateMutability": "nonpayable",
      "type": "function",
      "gas": 22045
    },
    {
      "name": "coins",
      "outputs": [
        {
          "type": "address",
          "name": ""
        }
      ],
      "inputs": [
        {
          "type": "uint256",
          "name": "arg0"
        }
      ],
      "stateMutability": "view",
      "type": "function",
      "gas": 2130
    },
    {
      "name": "balances",
      "outputs": [
        {
          "type": "uint256",
          "name": ""
        }
      ],
      "inputs": [
        {
          "type": "uint256",
          "name": "arg0"
        }
      ],
      "stateMutability": "view",
      "type": "function",
      "gas": 2160
    },
    {
      "name": "fee",
      "outputs": [
        {
          "type": "uint256",
          "name": ""
        }
      ],
      "inputs": [],
      "stateMutability": "view",
      "type": "function",
      "gas": 2081
    },
    {
      "name": "protocol_fee",
      "outputs": [
        {
          "type": "uint256",
          "name": ""
        }
      ],
      "inputs": [],
      "stateMutability": "view",
      "type": "function",
      "gas": 2111
    },
    {
      "name": "owner",
      "outputs": [
        {
          "type": "address",
          "name": ""
        }
      ],
      "inputs": [],
      "stateMutability": "view",
      "type": "function",
      "gas": 2141
    },
    {
      "name": "fee_receiver",
      "outputs": [
        {
          "type": "address",
          "name": ""
        }
      ],
      "inputs": [],
      "stateMutability": "view",
      "type": "function",
      "gas": 2171
    },
    {
      "name": "lp_token",
      "outputs": [
        {
          "type": "address",
          "name": ""
        }
      ],
      "inputs": [],
      "stateMutability": "view",
      "type": "function",
      "gas": 2201
    },
    {
      "name": "initial_A",
      "outputs": [
        {
          "type": "uint256",
          "name": ""
        }
      ],
      "inputs": [],
      "stateMutability": "view",
      "type": "function",
      "gas": 2231
    },
    {
      "name": "future_A",
      "outputs": [
        {
          "type": "uint256",
          "name": ""
        }
      ],
      "inputs": [],
      "stateMutability": "view",
      "type": "function",
      "gas": 2261
    },
    {
      "name": "initial_A_time",
      "outputs": [
        {
          "type": "uint256",
          "name": ""
        }
      ],
      "inputs": [],
      "stateMutability": "view",
      "type": "function",
      "gas": 2291
    },
    {
      "name": "future_A_time",
      "outputs": [
        {
          "type": "uint256",
          "name": ""
        }
      ],
      "inputs": [],
      "stateMutability": "view",
      "type": "function",
      "gas": 2321
    },
    {
      "name": "admin_actions_deadline",
      "outputs": [
        {
          "type": "uint256",
          "name": ""
        }
      ],
      "inputs": [],
      "stateMutability": "view",
      "type": "function",
      "gas": 2351
    },
    {
      "name": "transfer_ownership_deadline",
      "outputs": [
        {
          "type": "uint256",
          "name": ""
        }
      ],
      "inputs": [],
      "stateMutability": "view",
      "type": "function",
      "gas": 2381
    },
    {
      "name": "future_fee",
      "outputs": [
        {
          "type": "uint256",
          "name": ""
        }
      ],
      "inputs": [],
      "stateMutability": "view",
      "type": "function",
      "gas": 2411
    },
    {
      "name": "future_protocol_fee",
      "outputs": [
        {
          "type": "uint256",
          "name": ""
        }
      ],
      "inputs": [],
      "stateMutability": "view",
      "type": "function",
      "gas": 2441
    },
    {
      "name": "future_owner",
      "outputs": [
        {
          "type": "address",
          "name": ""
        }
      ],
      "inputs": [],
      "stateMutability": "view",
      "type": "function",
      "gas": 2471
    }
  ],
  "transactionHash": "0x055e021f7a2ea66a759da8417a4a501ce91a51da358c20f7ba763df54fa34461",
  "args": [
    "0x6ADf17424F6E68733C71209471dA50e155B5C5B2",
    "0xf042F2dABba35f83eb126116f7Ff8dAdfC631E97",
    [
      "0xe3520349F477A5F6EB06107066048508498A291b",
      "0xB12BFcA5A55806AaF64E99521918A4bf0fC40802",
      "0x4988a896b1227218e4A686fdE5EabdcAbd91571f"
    ],
    "0xfF79D5bff48e1C01b722560D6ffDfCe9FC883587",
    100,
    4000000,
    10000000000
  ],
  "bytecode": "0x610120614f4a610140396020614f4a60c03960c05160a01c1561002157600080fd5b60206020614f4a0160c03960c05160a01c1561003c57600080fd5b60206040614f4a0160c03960c05160a01c1561005757600080fd5b60206060614f4a0160c03960c05160a01c1561007257600080fd5b60206080614f4a0160c03960c05160a01c1561008d57600080fd5b602060a0614f4a0160c03960c05160a01c156100a857600080fd5b61026060006003818352015b600061018061026051600381106100ca57600080fd5b6020020151186100d957600080fd5b5b81516001018083528114156100b4575b5050600060c052602060c0206101805181556101a05160018201556101c05160028201555061020051600755610200516008556102205160025561024051600355610140516004556101605160055542624f1a0081818301101561014d57600080fd5b808201905090506011556101e051600655614f3256341561000a57600080fd5b600436101561001857614dc9565b600035601c526000156101c1575b61014052600a546101605260085461018052610160514210156101ae576007546101a0526009546101c0526101a051610180511115610107576101a051610180516101a0518082101561007857600080fd5b80820390509050426101c0518082101561009157600080fd5b8082039050905080820282158284830414176100ac57600080fd5b80905090509050610160516101c051808210156100c857600080fd5b8082039050905080806100da57600080fd5b8204905090508181830110156100ef57600080fd5b808201905090506000526000516101405156506101a9565b6101a0516101a051610180518082101561012057600080fd5b80820390509050426101c0518082101561013957600080fd5b80820390509050808202821582848304141761015457600080fd5b80905090509050610160516101c0518082101561017057600080fd5b80820390509050808061018257600080fd5b8204905090508082101561019557600080fd5b808203905090506000526000516101405156505b6101bf565b610180516000526000516101405156505b005b63f446c1d060005114156101eb5760065801610026565b610140526101405160005260206000f350005b6000156102fd575b61014052670de0b6b3a7640000610160526c0c9f2c9cd04674edea40000000610180526c0c9f2c9cd04674edea400000006101a0526101c060006003818352015b6101606101c0516003811061024857600080fd5b60200201516101c0516003811061025e57600080fd5b600160c052602060c0200154808202821582848304141761027e57600080fd5b80905090509050670de0b6b3a7640000808204905090506101606101c051600381106102a957600080fd5b60200201525b8151600101808352811415610234575b505060606101c0525b60006101c0511115156102da576102f6565b60206101c05103610160015160206101c051036101c0526102c8565b6101405156005b600015610417575b6101a052610140526101605261018052670de0b6b3a76400006101c0526c0c9f2c9cd04674edea400000006101e0526c0c9f2c9cd04674edea400000006102005261022060006003818352015b6101c0610220516003811061036657600080fd5b6020020151610140610220516003811061037f57600080fd5b6020020151808202821582848304141761039857600080fd5b80905090509050670de0b6b3a7640000808204905090506101c061022051600381106103c357600080fd5b60200201525b8151600101808352811415610352575b50506060610220525b6000610220511115156103f457610410565b602061022051036101c0015160206102205103610220526103e2565b6101a05156005b600015610705575b6101c0526101405261016052610180526101a05260006101e05261022060006003818352015b602061022051026101400151610200526101e080516102005181818301101561046d57600080fd5b808201905090508152505b8151600101808352811415610445575b50506101e05115156104a35760006000526000516101c05156505b6000610200526101e051610220526101a051600380820282158284830414176104cb57600080fd5b8090509050905061024052610260600060ff818352015b61022051610280526102c060006003818352015b60206102c0510261014001516102a0526102805161022051808202821582848304141761052257600080fd5b809050905090506102a0516003808202821582848304141761054357600080fd5b80905090509050808061055557600080fd5b820490509050610280525b81516001018083528114156104f6575b50506102205161020052610240516101e051808202821582848304141761059657600080fd5b8090509050905061028051600380820282158284830414176105b757600080fd5b809050905090508181830110156105cd57600080fd5b808201905090506102205180820282158284830414176105ec57600080fd5b809050905090506102405160018082101561060657600080fd5b8082039050905061022051808202821582848304141761062557600080fd5b80905090509050600461028051808202821582848304141761064657600080fd5b8090509050905081818301101561065c57600080fd5b80820190509050808061066e57600080fd5b82049050905061022052610200516102205111156106b557600161022051610200518082101561069d57600080fd5b808203905090501115156106b0576106f1565b6106e0565b60016102005161022051808210156106cc57600080fd5b808203905090501115156106df576106f1565b5b5b81516001018083528114156104e2575b5050610220516000526000516101c0515650005b60001561086d575b6101c0526101405261016052610180526101a0526101405161016051610180516101a0516101c051610140516101e0526101605161020052610180516102205261022051610200516101e05160065801610305565b610280526102a0526102c0526101c0526101a05261018052610160526101405261028080516102e052806020015161030052806040015161032052506101405161016051610180516101a0516101c0516101e05161020051610220516102405161026051610280516102a0516102c0516102e05161030051610320516102e05161034052610300516103605261032051610380526101a0516103a0526103a0516103805161036051610340516006580161041f565b6104005261032052610300526102e0526102c0526102a05261028052610260526102405261022052610200526101e0526101c0526101a052610180526101605261014052610400516000526000516101c0515650005b63bb7b8b806000511415610a0f5761014051600658016101f3565b61016052610180526101a0526101405261016080516101c05280602001516101e052806040015161020052506101405161016051610180516101a0516101c0516101e0516102005160065801610026565b61022052610200526101e0526101c0526101a05261018052610160526101405261022051610240526101405161016051610180516101a0516101c0516101e0516102005161022051610240516101c051610260526101e05161028052610200516102a052610240516102c0526102c0516102a05161028051610260516006580161041f565b610320526102405261022052610200526101e0526101c0526101a052610180526101605261014052610320516101405260206101e060046318160ddd6101805261019c6006545afa6109af57600080fd5b601f3d116109bc57600080fd5b6000506101e0516101605261014051670de0b6b3a764000080820282158284830414176109e857600080fd5b809050905090506101605180806109fe57600080fd5b82049050905060005260206000f350005b633883e1196000511415610d085760643560011c15610a2d57600080fd5b60018060c052602060c020546101405260018160c052602060c02001546101605260028160c052602060c020015461018052506101405161016051610180516101a05160065801610026565b6101c0526101a0526101805261016052610140526101c0516101a0526101405161016051610180516101a0516101c051610140516101e052610160516102005261018051610220526101a051610240526102405161022051610200516101e0516006580161070d565b6102a0526101c0526101a0526101805261016052610140526102a0516101c0526101e060006003818352015b60643515610b66576101406101e05160038110610b2a57600080fd5b60200201805160046101e05160038110610b4357600080fd5b6020020135818183011015610b5757600080fd5b80820190509050815250610bb0565b6101406101e05160038110610b7a57600080fd5b60200201805160046101e05160038110610b9357600080fd5b602002013580821015610ba557600080fd5b808203905090508152505b5b8151600101808352811415610b0e575b50506101405161016051610180516101a0516101c0516101e0516101405161020052610160516102205261018051610240526101a05161026052610260516102405161022051610200516006580161070d565b6102c0526101e0526101c0526101a0526101805261016052610140526102c0516101e052602061028060046318160ddd6102205261023c6006545afa610c5957600080fd5b601f3d11610c6657600080fd5b600050610280516102005260006102205260643515610ca4576101e0516101c05180821015610c9457600080fd5b8082039050905061022052610cc5565b6101c0516101e05180821015610cb957600080fd5b80820390509050610220525b61022051610200518082028215828483041417610ce157600080fd5b809050905090506101c0518080610cf757600080fd5b82049050905060005260206000f350005b634515cef360005114156116b05762ffffff5415610d2557600080fd5b600162ffffff5560105415610d3957600080fd5b6060366101403760025460038082028215828483041417610d5957600080fd5b809050905090506008808204905090506101a0526003546101c0526101405161016051610180516101a0516101c0516101e05160065801610026565b610200526101e0526101c0526101a052610180526101605261014052610200516101e052602061028060046318160ddd6102205261023c6006545afa610dda57600080fd5b601f3d11610de757600080fd5b600050610280516102005260006102205260018060c052602060c020546102405260018160c052602060c02001546102605260028160c052602060c020015461028052506000610200511115610ed5576101405161016051610180516101a0516101c0516101e0516102005161022051610240516102605161028051610240516102a052610260516102c052610280516102e0526101e05161030052610300516102e0516102c0516102a0516006580161070d565b6103605261028052610260526102405261022052610200526101e0526101c0526101a05261018052610160526101405261036051610220525b610240516102a052610260516102c052610280516102e05261030060006003818352015b60046103005160038110610f0c57600080fd5b602002013561032052610200511515610f305760006103205111610f2f57600080fd5b5b6103005160038110610f4157600080fd5b600060c052602060c02001546103405260006103205111156110c257600060046103c0527f23b872dd000000000000000000000000000000000000000000000000000000006103e0526103c060048060208461042001018260208501600060045af1505080518201915050336020826104200101526020810190503060208261042001015260208101905060046103005160038110610fdf57600080fd5b6020020135602082610420010152602081019050806104205261042090508051602001806104e08284600060045af161101757600080fd5b505060206105c06104e0516105006000610340515af161103657600080fd5b60203d808211156110475780611049565b815b905090506105a0526105a08051602001806103608284600060045af161106e57600080fd5b505060006103605111156110c15761036080602001516000825180602090131561109757600080fd5b80919012156110a557600080fd5b806020036101000a820490509050905015156110c057600080fd5b5b5b61024061030051600381106110d657600080fd5b6020020151610320518181830110156110ee57600080fd5b808201905090506102a0610300516003811061110957600080fd5b60200201525b8151600101808352811415610ef9575b50506101405161016051610180516101a0516101c0516101e05161020051610220516102405161026051610280516102a0516102c0516102e051610300516102a051610320526102c051610340526102e051610360526101e05161038052610380516103605161034051610320516006580161070d565b6103e052610300526102e0526102c0526102a05261028052610260526102405261022052610200526101e0526101c0526101a0526101805261016052610140526103e051610300526102205161030051116111f057600080fd5b610300516103205260006102005111156114f95761034060006003818352015b61030051610240610340516003811061122857600080fd5b6020020151808202821582848304141761124157600080fd5b8090509050905061022051808061125757600080fd5b820490509050610360526000610380526102a0610340516003811061127b57600080fd5b60200201516103605111156112c457610360516102a061034051600381106112a257600080fd5b6020020151808210156112b457600080fd5b80820390509050610380526112fa565b6102a061034051600381106112d857600080fd5b602002015161036051808210156112ee57600080fd5b80820390509050610380525b6101a05161038051808202821582848304141761131657600080fd5b809050905090506402540be40080820490509050610140610340516003811061133e57600080fd5b60200201526102a0610340516003811061135757600080fd5b6020020151610140610340516003811061137057600080fd5b60200201516101c051808202821582848304141761138d57600080fd5b809050905090506402540be40080820490509050808210156113ae57600080fd5b8082039050905061034051600381106113c657600080fd5b600160c052602060c02001556102a061034051600381106113e657600080fd5b602002018051610140610340516003811061140057600080fd5b60200201518082101561141257600080fd5b808203905090508152505b8151600101808352811415611210575b50506101405161016051610180516101a0516101c0516101e05161020051610220516102405161026051610280516102a0516102c0516102e05161030051610320516102a051610340526102c051610360526102e051610380526101e0516103a0526103a0516103805161036051610340516006580161070d565b6104005261032052610300526102e0526102c0526102a05261028052610260526102405261022052610200526101e0526101c0526101a052610180526101605261014052610400516103205261151d565b600160c052602060c0206102a05181556102c05160018201556102e0516002820155505b60006103405261020051151561153a57610300516103405261158f565b6102005161032051610220518082101561155357600080fd5b80820390509050808202821582848304141761156e57600080fd5b8090509050905061022051808061158457600080fd5b820490509050610340525b60643561034051101515156115e3576308c379a06103605260206103805260146103a0527f536c697070616765207363726577656420796f750000000000000000000000006103c0526103a050606461037cfd5b602061040060446340c10f19610360523361038052610340516103a05261037c60006006545af161161357600080fd5b601f3d1161162057600080fd5b6000506104005060043561036052602435610380526044356103a052610140516103c052610160516103e05261018051610400526103005161042052610200516103405181818301101561167357600080fd5b8082019050905061044052337f423f6495a08fc652425cf4ed0d1f9e37e571d9b9529b1c1c23cce780b2e7df0d610100610360a2600062ffffff55005b600015611b12575b610200526101405261016052610180526101a0526101c0526101e0526101605161014051186116e657600080fd5b60006101605112156116f757600080fd5b6003610160511261170757600080fd5b600061014051121561171857600080fd5b6003610140511261172857600080fd5b6101405161016051610180516101a0516101c0516101e051610200516102205160065801610026565b6102405261022052610200526101e0526101c0526101a05261018052610160526101405261024051610220526101405161016051610180516101a0516101c0516101e0516102005161022051610240516101a051610260526101c051610280526101e0516102a052610220516102c0526102c0516102a05161028051610260516006580161041f565b610320526102405261022052610200526101e0526101c0526101a05261018052610160526101405261032051610240526102405161026052600061028052610220516003808202821582848304141761183257600080fd5b809050905090506102a05260006102c0526102e060006003818352015b610140516102e051141561186a57610180516102c0526118a0565b610160516102e051181561189a576101a06102e0516003811061188c57600080fd5b60200201516102c05261189f565b61191c565b5b61028080516102c0518181830110156118b857600080fd5b80820190509050815250610260516102405180820282158284830414176118de57600080fd5b809050905090506102c051600380820282158284830414176118ff57600080fd5b80905090509050808061191157600080fd5b820490509050610260525b815160010180835281141561184f575b50506102605161024051808202821582848304141761194a57600080fd5b809050905090506102a0516003808202821582848304141761196b57600080fd5b80905090509050808061197d57600080fd5b8204905090506102605261028051610240516102a051808061199e57600080fd5b8204905090508181830110156119b357600080fd5b808201905090506102e0526000610300526102405161032052610340600060ff818352015b6103205161030052610320516103205180820282158284830414176119fc57600080fd5b8090509050905061026051818183011015611a1657600080fd5b808201905090506002610320518082028215828483041417611a3757600080fd5b809050905090506102e051818183011015611a5157600080fd5b808201905090506102405180821015611a6957600080fd5b808203905090508080611a7b57600080fd5b8204905090506103205261030051610320511115611ac2576001610320516103005180821015611aaa57600080fd5b80820390509050111515611abd57611afe565b611aed565b6001610300516103205180821015611ad957600080fd5b80820390509050111515611aec57611afe565b5b5b81516001018083528114156119d8575b505061032051600052600051610200515650005b635e0d443f6000511415611df65760043580806000811215611b3057195b607f1c15611b3d57600080fd5b90505060243580806000811215611b5057195b607f1c15611b5d57600080fd5b905050670de0b6b3a7640000610140526c0c9f2c9cd04674edea40000000610160526c0c9f2c9cd04674edea40000000610180526101405161016051610180516101a0516101c0516101e051600658016101f3565b6102005261022052610240526101e0526101c0526101a05261018052610160526101405261020080516101a05280602001516101c05280604001516101e052506101a060043560038110611c0557600080fd5b602002015160443561014060043560038110611c2057600080fd5b60200201518082028215828483041417611c3957600080fd5b80905090509050670de0b6b3a764000080820490509050818183011015611c5f57600080fd5b80820190509050610200526101405161016051610180516101a0516101c0516101e0516102005161022051600435610240526024356102605261020051610280526101a0516102a0526101c0516102c0526101e0516102e0526102e0516102c0516102a051610280516102605161024051600658016116b8565b6103405261022052610200526101e0526101c0526101a05261018052610160526101405261034051610220526101a060243560038110611d1857600080fd5b60200201516102205180821015611d2e57600080fd5b80820390509050600180821015611d4457600080fd5b80820390509050670de0b6b3a76400008082028215828483041417611d6857600080fd5b8090509050905061014060243560038110611d8257600080fd5b60200201518080611d9257600080fd5b82049050905061024052600254610240518082028215828483041417611db757600080fd5b809050905090506402540be4008082049050905061026052610240516102605180821015611de457600080fd5b8082039050905060005260206000f350005b6307211ef760005114156120775760043580806000811215611e1457195b607f1c15611e2157600080fd5b90505060243580806000811215611e3457195b607f1c15611e4157600080fd5b905050610140516101605161018051600658016101f3565b6101a0526101c0526101e0526101805261016052610140526101a08051610140528060200151610160528060400151610180525060016101a05264e8d4a510006101c05264e8d4a510006101e05261014060043560038110611eba57600080fd5b60200201516044356101a060043560038110611ed557600080fd5b60200201518082028215828483041417611eee57600080fd5b80905090509050818183011015611f0457600080fd5b80820190509050610200526101405161016051610180516101a0516101c0516101e051610200516102205160043561024052602435610260526102005161028052610140516102a052610160516102c052610180516102e0526102e0516102c0516102a051610280516102605161024051600658016116b8565b6103405261022052610200526101e0526101c0526101a052610180526101605261014052610340516102205261014060243560038110611fbd57600080fd5b60200201516102205180821015611fd357600080fd5b80820390509050600180821015611fe957600080fd5b808203905090506101a06024356003811061200357600080fd5b6020020151808061201357600080fd5b8204905090506102405260025461024051808202821582848304141761203857600080fd5b809050905090506402540be400808204905090506102605261024051610260518082101561206557600080fd5b8082039050905060005260206000f350005b633df0212460005114156128f65762ffffff541561209457600080fd5b600162ffffff55600435808060008112156120ab57195b607f1c156120b857600080fd5b905050602435808060008112156120cb57195b607f1c156120d857600080fd5b905050601054156120e857600080fd5b670de0b6b3a7640000610140526c0c9f2c9cd04674edea40000000610160526c0c9f2c9cd04674edea400000006101805260018060c052602060c020546101a05260018160c052602060c02001546101c05260028160c052602060c02001546101e052506101405161016051610180516101a0516101c0516101e0516102005161022051610240516101a051610260526101c051610280526101e0516102a0526102a051610280516102605160065801610305565b6103005261032052610340526102405261022052610200526101e0526101c0526101a05261018052610160526101405261030080516102005280602001516102205280604001516102405250604435610260526004356003811061220057600080fd5b600060c052602060c02001546102805260006004610300527f23b872dd000000000000000000000000000000000000000000000000000000006103205261030060048060208461036001018260208501600060045af15050805182019150503360208261036001015260208101905030602082610360010152602081019050604435602082610360010152602081019050806103605261036090508051602001806104208284600060045af16122b557600080fd5b50506020610500610420516104406000610280515af16122d457600080fd5b60203d808211156122e557806122e7565b815b905090506104e0526104e08051602001806102a08284600060045af161230c57600080fd5b505060006102a051111561235f576102a080602001516000825180602090131561233557600080fd5b809190121561234357600080fd5b806020036101000a8204905090509050151561235e57600080fd5b5b6102006004356003811061237257600080fd5b6020020151610260516101406004356003811061238e57600080fd5b602002015180820282158284830414176123a757600080fd5b80905090509050670de0b6b3a7640000808204905090508181830110156123cd57600080fd5b80820190509050610300526101405161016051610180516101a0516101c0516101e05161020051610220516102405161026051610280516102a0516102c0516102e051610300516103205160043561034052602435610360526103005161038052610200516103a052610220516103c052610240516103e0526103e0516103c0516103a051610380516103605161034051600658016116b8565b6104405261032052610300526102e0526102c0526102a05261028052610260526102405261022052610200526101e0526101c0526101a0526101805261016052610140526104405161032052610200602435600381106124c657600080fd5b602002015161032051808210156124dc57600080fd5b808203905090506001808210156124f257600080fd5b808203905090506103405261034051600254808202821582848304141761251857600080fd5b809050905090506402540be400808204905090506103605261034051610360518082101561254557600080fd5b80820390509050670de0b6b3a7640000808202821582848304141761256957600080fd5b809050905090506101406024356003811061258357600080fd5b6020020151808061259357600080fd5b820490509050610340526064356103405110151515612616576308c379a06103805260206103a052602e6103c0527f45786368616e676520726573756c74656420696e20666577657220636f696e736103e0527f207468616e206578706563746564000000000000000000000000000000000000610400526103c050608461039cfd5b61036051600354808202821582848304141761263157600080fd5b809050905090506402540be400808204905090506103805261038051670de0b6b3a7640000808202821582848304141761266a57600080fd5b809050905090506101406024356003811061268457600080fd5b6020020151808061269457600080fd5b820490509050610380526101a0600435600381106126b157600080fd5b6020020151610260518181830110156126c957600080fd5b80820190509050600435600381106126e057600080fd5b600160c052602060c02001556101a0602435600381106126ff57600080fd5b6020020151610340518082101561271557600080fd5b80820390509050610380518082101561272d57600080fd5b808203905090506024356003811061274457600080fd5b600160c052602060c0200155600060046103a0527fa9059cbb000000000000000000000000000000000000000000000000000000006103c0526103a060048060208461040001018260208501600060045af15050805182019150503360208261040001015260208101905061034051602082610400010152602081019050806104005261040090508051602001806104a08284600060045af16127e657600080fd5b505060206105606104a0516104c060006024356003811061280657600080fd5b600060c052602060c02001545af161281d57600080fd5b60203d8082111561282e5780612830565b815b90509050610540526105408051602001806102a08284600060045af161285557600080fd5b505060006102a05111156128a8576102a080602001516000825180602090131561287e57600080fd5b809190121561288c57600080fd5b806020036101000a820490509050905015156128a757600080fd5b5b6004356103a0526044356103c0526024356103e0526103405161040052337f8b3e96f2b889fa771c53c981b40daf005f63f637f1869f707052d15a3dd9714060806103a0a2600062ffffff55005b63ecb586a56000511415612ccd5762ffffff541561291357600080fd5b600162ffffff5560206101c060046318160ddd6101605261017c6006545afa61293b57600080fd5b601f3d1161294857600080fd5b6000506101c0516101405260c0366101603761022060006003818352015b610220516003811061297757600080fd5b600160c052602060c0200154600435808202821582848304141761299a57600080fd5b809050905090506101405180806129b057600080fd5b82049050905061024052602461022051600381106129cd57600080fd5b60200201356102405110151515612a48576308c379a06102605260206102805260306102a0527f5769746864726177616c20726573756c74656420696e20666577657220636f696102c0527f6e73207468616e206578706563746564000000000000000000000000000000006102e0526102a050608461027cfd5b6102205160038110612a5957600080fd5b600160c052602060c0200180546102405180821015612a7757600080fd5b80820390509050815550610240516101606102205160038110612a9957600080fd5b6020020152600060046102c0527fa9059cbb000000000000000000000000000000000000000000000000000000006102e0526102c060048060208461032001018260208501600060045af15050805182019150503360208261032001015260208101905061024051602082610320010152602081019050806103205261032090508051602001806103c08284600060045af1612b3457600080fd5b505060206104806103c0516103e060006102205160038110612b5557600080fd5b600060c052602060c02001545af1612b6c57600080fd5b60203d80821115612b7d5780612b7f565b815b90509050610460526104608051602001806102608284600060045af1612ba457600080fd5b50506000610260511115612bf757610260806020015160008251806020901315612bcd57600080fd5b8091901215612bdb57600080fd5b806020036101000a82049050905090501515612bf657600080fd5b5b5b8151600101808352811415612966575b505060206102c060446379cc67906102205233610240526004356102605261023c60006006545af1612c3957600080fd5b601f3d11612c4657600080fd5b6000506102c050610160516102205261018051610240526101a051610260526101c051610280526101e0516102a052610200516102c0526101405160043580821015612c9157600080fd5b808203905090506102e052337fa49d4cf02656aebf8c771f5a8585638a2a15ee6c97cf7205d4208ed7c1df252d60e0610220a2600062ffffff55005b639fdaea0c60005114156135ec5762ffffff5415612cea57600080fd5b600162ffffff5560105415612cfe57600080fd5b60206101c060046318160ddd6101605261017c6006545afa612d1f57600080fd5b601f3d11612d2c57600080fd5b6000506101c0516101405260006101405118612d4757600080fd5b60025460038082028215828483041417612d6057600080fd5b8090509050905060088082049050905061016052600354610180526101405161016051610180516101a05160065801610026565b6101c0526101a0526101805261016052610140526101c0516101a05260018060c052602060c020546101c05260018160c052602060c02001546101e05260028160c052602060c020015461020052506101c051610220526101e0516102405261020051610260526101405161016051610180516101a0516101c0516101e05161020051610220516102405161026051610280516101c0516102a0526101e0516102c052610200516102e0526101a05161030052610300516102e0516102c0516102a0516006580161070d565b6103605261028052610260526102405261022052610200526101e0526101c0526101a05261018052610160526101405261036051610280526102a060006003818352015b6102206102a05160038110612eb857600080fd5b60200201805160046102a05160038110612ed157600080fd5b602002013580821015612ee357600080fd5b808203905090508152505b8151600101808352811415612ea4575b50506101405161016051610180516101a0516101c0516101e05161020051610220516102405161026051610280516102a051610220516102c052610240516102e05261026051610300526101a0516103205261032051610300516102e0516102c0516006580161070d565b610380526102a05261028052610260526102405261022052610200526101e0526101c0526101a052610180526101605261014052610380516102a0526060366102c03761032060006003818352015b6102a0516101c06103205160038110612fd057600080fd5b60200201518082028215828483041417612fe957600080fd5b80905090509050610280518080612fff57600080fd5b82049050905061034052600061036052610220610320516003811061302357600080fd5b602002015161034051111561306c5761034051610220610320516003811061304a57600080fd5b60200201518082101561305c57600080fd5b80820390509050610360526130a2565b610220610320516003811061308057600080fd5b6020020151610340518082101561309657600080fd5b80820390509050610360525b610160516103605180820282158284830414176130be57600080fd5b809050905090506402540be400808204905090506102c061032051600381106130e657600080fd5b602002015261022061032051600381106130ff57600080fd5b60200201516102c0610320516003811061311857600080fd5b602002015161018051808202821582848304141761313557600080fd5b809050905090506402540be400808204905090508082101561315657600080fd5b80820390509050610320516003811061316e57600080fd5b600160c052602060c0200155610220610320516003811061318e57600080fd5b6020020180516102c061032051600381106131a857600080fd5b6020020151808210156131ba57600080fd5b808203905090508152505b8151600101808352811415612fb8575b50506101405161016051610180516101a0516101c0516101e05161020051610220516102405161026051610280516102a0516102c0516102e05161030051610320516102205161034052610240516103605261026051610380526101a0516103a0526103a0516103805161036051610340516006580161070d565b6104005261032052610300526102e0526102c0526102a05261028052610260526102405261022052610200526101e0526101c0526101a05261018052610160526101405261040051610320526102805161032051808210156132b157600080fd5b808203905090506101405180820282158284830414176132d057600080fd5b809050905090506102805180806132e657600080fd5b820490509050610340526000610340511861330057600080fd5b6103408051600181818301101561331657600080fd5b808201905090508152506064356103405111151515613374576308c379a06103605260206103805260146103a0527f536c697070616765207363726577656420796f750000000000000000000000006103c0526103a050606461037cfd5b602061040060446379cc6790610360523361038052610340516103a05261037c60006006545af16133a457600080fd5b601f3d116133b157600080fd5b6000506104005061036060006003818352015b6000600461036051600381106133d957600080fd5b6020020135181561355257600060046103e0527fa9059cbb00000000000000000000000000000000000000000000000000000000610400526103e060048060208461044001018260208501600060045af1505080518201915050336020826104400101526020810190506004610360516003811061345657600080fd5b6020020135602082610440010152602081019050806104405261044090508051602001806104e08284600060045af161348e57600080fd5b505060206105a06104e051610500600061036051600381106134af57600080fd5b600060c052602060c02001545af16134c657600080fd5b60203d808211156134d757806134d9565b815b90509050610580526105808051602001806103808284600060045af16134fe57600080fd5b505060006103805111156135515761038080602001516000825180602090131561352757600080fd5b809190121561353557600080fd5b806020036101000a8204905090509050151561355057600080fd5b5b5b5b81516001018083528114156133c4575b505060043561036052602435610380526044356103a0526102c0516103c0526102e0516103e05261030051610400526102a051610420526101405161034051808210156135af57600080fd5b8082039050905061044052337f173599dbf9c6ca6f7c3b590df07ae98a45d74ff54065505141e7de6c46a624c2610100610360a2600062ffffff55005b60001561391d575b610200526101405261016052610180526101a0526101c0526101e052600061016051121561362157600080fd5b6003610160511261363157600080fd5b6101e05161022052600061024052610140516003808202821582848304141761365957600080fd5b80905090509050610260526000610280526102a060006003818352015b610160516102a05118156136a6576101806102a0516003811061369857600080fd5b6020020151610280526136ab565b613727565b6102408051610280518181830110156136c357600080fd5b80820190509050815250610220516101e05180820282158284830414176136e957600080fd5b80905090509050610280516003808202821582848304141761370a57600080fd5b80905090509050808061371c57600080fd5b820490509050610220525b8151600101808352811415613676575b5050610220516101e051808202821582848304141761375557600080fd5b80905090509050610260516003808202821582848304141761377657600080fd5b80905090509050808061378857600080fd5b82049050905061022052610240516101e0516102605180806137a957600080fd5b8204905090508181830110156137be57600080fd5b808201905090506102a05260006102c0526101e0516102e052610300600060ff818352015b6102e0516102c0526102e0516102e051808202821582848304141761380757600080fd5b809050905090506102205181818301101561382157600080fd5b8082019050905060026102e051808202821582848304141761384257600080fd5b809050905090506102a05181818301101561385c57600080fd5b808201905090506101e0518082101561387457600080fd5b80820390509050808061388657600080fd5b8204905090506102e0526102c0516102e05111156138cd5760016102e0516102c051808210156138b557600080fd5b808203905090501115156138c857613909565b6138f8565b60016102c0516102e051808210156138e457600080fd5b808203905090501115156138f757613909565b5b5b81516001018083528114156137e3575b50506102e051600052600051610200515650005b600015613fc6575b6101805261014052610160526101405161016051610180516101a05160065801610026565b6101c0526101a0526101805261016052610140526101c0516101a0526002546003808202821582848304141761397f57600080fd5b809050905090506008808204905090506101c05260016101e05264e8d4a510006102005264e8d4a510006102205260206102c060046318160ddd6102605261027c6006545afa6139ce57600080fd5b601f3d116139db57600080fd5b6000506102c051610240526101405161016051610180516101a0516101c0516101e05161020051610220516102405161026051610280516102a051600658016101f3565b6102c0526102e052610300526102a05261028052610260526102405261022052610200526101e0526101c0526101a0526101805261016052610140526102c080516102605280602001516102805280604001516102a052506101405161016051610180516101a0516101c0516101e05161020051610220516102405161026051610280516102a0516102c051610260516102e05261028051610300526102a051610320526101a051610340526103405161032051610300516102e0516006580161041f565b6103a0526102c0526102a05261028052610260526102405261022052610200526101e0526101c0526101a0526101805261016052610140526103a0516102c0526102c051610140516102c0518082028215828483041417613b4457600080fd5b80905090509050610240518080613b5a57600080fd5b82049050905080821015613b6d57600080fd5b808203905090506102e052610260516103005261028051610320526102a05161034052610140610380525b61038051516020610380510161038052610380610380511015613bba57613b98565b6101a0516103a052610160516103c052610260516103e05261028051610400526102a051610420526102e051610440526104405161042051610400516103e0516103c0516103a051600658016135f4565b6104a052610360610380525b6103805152602061038051036103805261014061038051101515613c3a57613c17565b6104a051610360526102606101605160038110613c5657600080fd5b60200201516103605180821015613c6c57600080fd5b808203905090506101e06101605160038110613c8757600080fd5b60200201518080613c9757600080fd5b820490509050610380526103a060006003818352015b60006103c052610160516103a0511415613d2f576102606103a05160038110613cd557600080fd5b60200201516102e0518082028215828483041417613cf257600080fd5b809050905090506102c0518080613d0857600080fd5b8204905090506103605180821015613d1f57600080fd5b808203905090506103c052613dae565b6102606103a05160038110613d4357600080fd5b60200201516102606103a05160038110613d5c57600080fd5b60200201516102e0518082028215828483041417613d7957600080fd5b809050905090506102c0518080613d8f57600080fd5b82049050905080821015613da257600080fd5b808203905090506103c0525b6103006103a05160038110613dc257600080fd5b6020020180516101c0516103c0518082028215828483041417613de457600080fd5b809050905090506402540be4008082049050905080821015613e0557600080fd5b808203905090508152505b8151600101808352811415613cad575b50506103006101605160038110613e3657600080fd5b60200201516101406103c0525b6103c0515160206103c051016103c0526103c06103c0511015613e6557613e43565b6101a0516103e05261016051610400526103005161042052610320516104405261034051610460526102e0516104805261048051610460516104405161042051610400516103e051600658016135f4565b6104e0526103a06103c0525b6103c0515260206103c051036103c0526101406103c051101515613ee557613ec2565b6104e05180821015613ef657600080fd5b808203905090506103a0526103a051600180821015613f1457600080fd5b808203905090506101e06101605160038110613f2f57600080fd5b60200201518080613f3f57600080fd5b8204905090506103a0526103c08080806103a051815250506020810190508080610380516103a05180821015613f7457600080fd5b808203905090508152505060409050905060c05260c051610400525b600061040051111515613fa257613fbe565b602061040051036103c001516020610400510361040052613f90565b610180515650005b63cc2b27d7600051141561404a5760243580806000811215613fe457195b607f1c15613ff157600080fd5b9050506004356101405260243561016052610160516101405160065801613925565b6101c0526101e0526101c080808080516102005250506020810190508080805161022052505050506102005160005260206000f350005b631a4d01d260005114156143b85762ffffff541561406757600080fd5b600162ffffff556024358080600081121561407e57195b607f1c1561408b57600080fd5b9050506010541561409b57600080fd5b604036610140376101405161016051600435610180526024356101a0526101a0516101805160065801613925565b610200526102205261016052610140526102008080808051610240525050602081019050808080516102605250505050610240805161014052806020015161016052506044356101405110151515614160576308c379a06101805260206101a05260186101c0527f4e6f7420656e6f75676820636f696e732072656d6f76656400000000000000006101e0526101c050606461019cfd5b6024356003811061417057600080fd5b600160c052602060c0200180546101405161016051600354808202821582848304141761419c57600080fd5b809050905090506402540be400808204905090508181830110156141bf57600080fd5b80820190509050808210156141d357600080fd5b80820390509050815550602061022060446379cc679061018052336101a0526004356101c05261019c60006006545af161420c57600080fd5b601f3d1161421957600080fd5b60005061022050600060046101e0527fa9059cbb00000000000000000000000000000000000000000000000000000000610200526101e060048060208461024001018260208501600060045af15050805182019150503360208261024001015260208101905061014051602082610240010152602081019050806102405261024090508051602001806102e08284600060045af16142b657600080fd5b505060206103a06102e0516103006000602435600381106142d657600080fd5b600060c052602060c02001545af16142ed57600080fd5b60203d808211156142fe5780614300565b815b90509050610380526103808051602001806101808284600060045af161432557600080fd5b505060006101805111156143785761018080602001516000825180602090131561434e57600080fd5b809190121561435c57600080fd5b806020036101000a8204905090509050151561437757600080fd5b5b6004356101e0526101405161020052337f9e96dd3b997a2a257eec4df9bb6eaf626e206df5f543bd963682d143300be31060406101e0a2600062ffffff55005b633c157e6460005114156145505760045433146143d457600080fd5b600954620151808181830110156143ea57600080fd5b808201905090504210156143fd57600080fd5b426201518081818301101561441157600080fd5b80820190509050602435101561442657600080fd5b6101405160065801610026565b610160526101405261016051610140526000600435111561445b57620f42406004351061445e565b60005b61446757600080fd5b610140516004351015156144a05761014051600a808202821582848304141761448f57600080fd5b8090509050905060043511156144a3565b60005b156144af5760016144eb565b6101405160043510156144e75761014051600435600a80820282158284830414176144d957600080fd5b8090509050905010156144ea565b60005b5b5b6144f557600080fd5b6101405160075560043560085542600955602435600a55610140516101605260043561018052426101a0526024356101c0527fa2b71ec6df949300b59aab36b55e189697b750119dd349fcfa8c0f779e83c2546080610160a1005b63551a658860005114156145d557600454331461456c57600080fd5b6101405160065801610026565b6101605261014052610160516101405261014051600755610140516008554260095542600a55610140516101605242610180527f46e22fb3709ad289f62ce63d469248536dbc78d82b84a3d7e74ad606dc2019386040610160a1005b635b5a146760005114156146935760045433146145f157600080fd5b600b54156145fe57600080fd5b64012a05f200600435111561461257600080fd5b6402540be400602435111561462657600080fd5b426203f48081818301101561463a57600080fd5b808201905090506101405261014051600b55600435600d55602435600e556004356101605260243561018052610140517f351fc5da2fbf480f2225debf3664a4bc90fa9923743aad58b4603f648e931fe06040610160a2005b634f12fe9760005114156147275760045433146146af57600080fd5b600b544210156146be57600080fd5b6000600b54186146cd57600080fd5b6000600b55600d5461014052600e546101605261014051600255610160516003556101405161018052610160516101a0527fbe12859b636aed607d5230b2cc2711f68d70e51060e6cca1f575ef5d2fcc95d16040610180a1005b63226840fb600051141561474a57600454331461474357600080fd5b6000600b55005b636b441a4060005114156147de5760043560a01c1561476857600080fd5b600454331461477657600080fd5b600c541561478357600080fd5b426203f48081818301101561479757600080fd5b808201905090506101405261014051600c55600435600f55600435610140517f181aa3aa17d4cbf99265dd4443eba009433d3cde79d60164fde1d1a192beb93560006000a3005b636a1c05ae60005114156148575760045433146147fa57600080fd5b600c5442101561480957600080fd5b6000600c541861481857600080fd5b6000600c55600f546101405261014051600455610140517f71614071b88dee5e0b2ae578a9dd7b2ebbe9ae832ba419dc0242cd065a290b6c60006000a2005b6386fbf193600051141561487a57600454331461487357600080fd5b6000600c55005b630fb806d560005114156148d75760043560a01c1561489857600080fd5b60045433146148a657600080fd5b6004356005556004357ff6306346467904cb0e6dd1587c450e73948ad57b625bb3d1bfd0eac6537a454260006000a2005b636491ac0060005114156149735760206101c060246370a0823161014052306101605261015c6004356003811061490d57600080fd5b600060c052602060c02001545afa61492457600080fd5b601f3d1161493157600080fd5b6000506101c0516004356003811061494857600080fd5b600160c052602060c02001548082101561496157600080fd5b8082039050905060005260206000f350005b635cb2bb086000511415614b825761014060006003818352015b610140516003811061499e57600080fd5b600060c052602060c020015461016052602061022060246370a082316101a052306101c0526101bc610160515afa6149d557600080fd5b601f3d116149e257600080fd5b6000506102205161014051600381106149fa57600080fd5b600160c052602060c020015480821015614a1357600080fd5b80820390509050610180526000610180511115614b6d5760006004610200527fa9059cbb000000000000000000000000000000000000000000000000000000006102205261020060048060208461026001018260208501600060045af150508051820191505060055460208261026001015260208101905061018051602082610260010152602081019050806102605261026090508051602001806103008284600060045af1614ac257600080fd5b505060206103c0610300516103206000610160515af1614ae157600080fd5b60203d80821115614af25780614af4565b815b905090506103a0526103a08051602001806101a08284600060045af1614b1957600080fd5b505060006101a0511115614b6c576101a0806020015160008251806020901315614b4257600080fd5b8091901215614b5057600080fd5b806020036101000a82049050905090501515614b6b57600080fd5b5b5b5b815160010180835281141561498d575b5050005b63e36988536000511415614bb3576004543314614b9e57600080fd5b4260115411614bac57600080fd5b6001601055005b633046f9726000511415614bd6576004543314614bcf57600080fd5b6000601055005b63c66106576000511415614c0b5760043560038110614bf457600080fd5b600060c052602060c020015460005260206000f350005b634903b0d16000511415614c405760043560038110614c2957600080fd5b600160c052602060c020015460005260206000f350005b63ddca3f436000511415614c5c5760025460005260206000f350005b63165527326000511415614c785760035460005260206000f350005b638da5cb5b6000511415614c945760045460005260206000f350005b63cab4d3db6000511415614cb05760055460005260206000f350005b6382c630666000511415614ccc5760065460005260206000f350005b635409491a6000511415614ce85760075460005260206000f350005b63b4b577ad6000511415614d045760085460005260206000f350005b632081066c6000511415614d205760095460005260206000f350005b63140522886000511415614d3c57600a5460005260206000f350005b63405e28f86000511415614d5857600b5460005260206000f350005b63e0a0b5866000511415614d7457600c5460005260206000f350005b6358680d0b6000511415614d9057600d5460005260206000f350005b6353a8ed116000511415614dac57600e5460005260206000f350005b631ec0cdc16000511415614dc857600f5460005260206000f350005b5b60006000fd5b610163614f3203610163600039610163614f32036000f3"
}