{
  "address": "0xfF79D5bff48e1C01b722560D6ffDfCe9FC883587",
  "abi": [
    {
      "name": "Transfer",
      "inputs": [
        {
          "type": "address",
          "name": "_from",
          "indexed": true
        },
        {
          "type": "address",
          "name": "_to",
          "indexed": true
        },
        {
          "type": "uint256",
          "name": "_value",
          "indexed": false
        }
      ],
      "anonymous": false,
      "type": "event"
    },
    {
      "name": "Approval",
      "inputs": [
        {
          "type": "address",
          "name": "_owner",
          "indexed": true
        },
        {
          "type": "address",
          "name": "_spender",
          "indexed": true
        },
        {
          "type": "uint256",
          "name": "_value",
          "indexed": false
        }
      ],
      "anonymous": false,
      "type": "event"
    },
    {
      "outputs": [],
      "inputs": [
        {
          "type": "string",
          "name": "_name"
        },
        {
          "type": "string",
          "name": "_symbol"
        }
      ],
      "stateMutability": "nonpayable",
      "type": "constructor"
    },
    {
      "name": "decimals",
      "outputs": [
        {
          "type": "uint256",
          "name": ""
        }
      ],
      "inputs": [],
      "stateMutability": "view",
      "type": "function",
      "gas": 261
    },
    {
      "name": "transfer",
      "outputs": [
        {
          "type": "bool",
          "name": ""
        }
      ],
      "inputs": [
        {
          "type": "address",
          "name": "_to"
        },
        {
          "type": "uint256",
          "name": "_value"
        }
      ],
      "stateMutability": "nonpayable",
      "type": "function",
      "gas": 74713
    },
    {
      "name": "transferFrom",
      "outputs": [
        {
          "type": "bool",
          "name": ""
        }
      ],
      "inputs": [
        {
          "type": "address",
          "name": "_from"
        },
        {
          "type": "address",
          "name": "_to"
        },
        {
          "type": "uint256",
          "name": "_value"
        }
      ],
      "stateMutability": "nonpayable",
      "type": "function",
      "gas": 111355
    },
    {
      "name": "approve",
      "outputs": [
        {
          "type": "bool",
          "name": ""
        }
      ],
      "inputs": [
        {
          "type": "address",
          "name": "_spender"
        },
        {
          "type": "uint256",
          "name": "_value"
        }
      ],
      "stateMutability": "nonpayable",
      "type": "function",
      "gas": 37794
    },
    {
      "name": "increaseAllowance",
      "outputs": [
        {
          "type": "bool",
          "name": ""
        }
      ],
      "inputs": [
        {
          "type": "address",
          "name": "_spender"
        },
        {
          "type": "uint256",
          "name": "_added_value"
        }
      ],
      "stateMutability": "nonpayable",
      "type": "function",
      "gas": 39038
    },
    {
      "name": "decreaseAllowance",
      "outputs": [
        {
          "type": "bool",
          "name": ""
        }
      ],
      "inputs": [
        {
          "type": "address",
          "name": "_spender"
        },
        {
          "type": "uint256",
          "name": "_subtracted_value"
        }
      ],
      "stateMutability": "nonpayable",
      "type": "function",
      "gas": 39062
    },
    {
      "name": "mint",
      "outputs": [
        {
          "type": "bool",
          "name": ""
        }
      ],
      "inputs": [
        {
          "type": "address",
          "name": "_to"
        },
        {
          "type": "uint256",
          "name": "_value"
        }
      ],
      "stateMutability": "nonpayable",
      "type": "function",
      "gas": 75652
    },
    {
      "name": "burnFrom",
      "outputs": [
        {
          "type": "bool",
          "name": ""
        }
      ],
      "inputs": [
        {
          "type": "address",
          "name": "_to"
        },
        {
          "type": "uint256",
          "name": "_value"
        }
      ],
      "stateMutability": "nonpayable",
      "type": "function",
      "gas": 75670
    },
    {
      "name": "set_minter",
      "outputs": [],
      "inputs": [
        {
          "type": "address",
          "name": "_minter"
        }
      ],
      "stateMutability": "nonpayable",
      "type": "function",
      "gas": 36458
    },
    {
      "name": "set_name",
      "outputs": [],
      "inputs": [
        {
          "type": "string",
          "name": "_name"
        },
        {
          "type": "string",
          "name": "_symbol"
        }
      ],
      "stateMutability": "nonpayable",
      "type": "function",
      "gas": 178219
    },
    {
      "name": "name",
      "outputs": [
        {
          "type": "string",
          "name": ""
        }
      ],
      "inputs": [],
      "stateMutability": "view",
      "type": "function",
      "gas": 7763
    },
    {
      "name": "symbol",
      "outputs": [
        {
          "type": "string",
          "name": ""
        }
      ],
      "inputs": [],
      "stateMutability": "view",
      "type": "function",
      "gas": 6816
    },
    {
      "name": "balanceOf",
      "outputs": [
        {
          "type": "uint256",
          "name": ""
        }
      ],
      "inputs": [
        {
          "type": "address",
          "name": "arg0"
        }
      ],
      "stateMutability": "view",
      "type": "function",
      "gas": 1636
    },
    {
      "name": "allowance",
      "outputs": [
        {
          "type": "uint256",
          "name": ""
        }
      ],
      "inputs": [
        {
          "type": "address",
          "name": "arg0"
        },
        {
          "type": "address",
          "name": "arg1"
        }
      ],
      "stateMutability": "view",
      "type": "function",
      "gas": 1881
    },
    {
      "name": "totalSupply",
      "outputs": [
        {
          "type": "uint256",
          "name": ""
        }
      ],
      "inputs": [],
      "stateMutability": "view",
      "type": "function",
      "gas": 1481
    },
    {
      "name": "minter",
      "outputs": [
        {
          "type": "address",
          "name": ""
        }
      ],
      "inputs": [],
      "stateMutability": "view",
      "type": "function",
      "gas": 1511
    }
  ],
  "transactionHash": "0x66a44baee01b3c4e18de6974045ba5d7f152a94153a8ced68ba25c9e2b64defc",
  "args": [
    "Rose DAI/USDC/USDT",
    "RoseStablesLP"
  ],
  "bytecode": "0x6040610aa96101403960606020610aa960c03960c051610aa9016101803960406020610aa960c03960c05160040135111561003957600080fd5b604060206020610aa90160c03960c051610aa90161020039602060206020610aa90160c03960c05160040135111561007057600080fd5b61018080600060c052602060c020602082510161012060006003818352015b826101205160200211156100a2576100c4565b61012051602002850151610120518501555b815160010180835281141561008f575b50505050505061020080600160c052602060c020602082510161012060006002818352015b826101205160200211156100fc5761011e565b61012051602002850151610120518501555b81516001018083528114156100e9575b505050505050336005556000610260523360007fddf252ad1be2c89b69c2b068fc378daa952ba7f163c4a11628f55a4df523b3ef6020610260a3610a9156341561000a57600080fd5b60043610156100185761092e565b600035601c5263313ce567600051141561003957601260005260206000f350005b63a9059cbb60005114156100ee5760043560a01c1561005757600080fd5b60023360e05260c052604060c02080546024358082101561007757600080fd5b80820390509050815550600260043560e05260c052604060c02080546024358181830110156100a557600080fd5b8082019050905081555060243561014052600435337fddf252ad1be2c89b69c2b068fc378daa952ba7f163c4a11628f55a4df523b3ef6020610140a3600160005260206000f350005b6323b872dd600051141561023c5760043560a01c1561010c57600080fd5b60243560a01c1561011c57600080fd5b600260043560e05260c052604060c02080546044358082101561013e57600080fd5b80820390509050815550600260243560e05260c052604060c020805460443581818301101561016c57600080fd5b80820190509050815550600360043560e05260c052604060c0203360e05260c052604060c02054610140527fffffffffffffffffffffffffffffffffffffffffffffffffffffffffffffffff6101405118156101fb5761014051604435808210156101d657600080fd5b80820390509050600360043560e05260c052604060c0203360e05260c052604060c020555b604435610160526024356004357fddf252ad1be2c89b69c2b068fc378daa952ba7f163c4a11628f55a4df523b3ef6020610160a3600160005260206000f350005b63095ea7b360005114156102b95760043560a01c1561025a57600080fd5b60243560033360e05260c052604060c02060043560e05260c052604060c0205560243561014052600435337f8c5be1e5ebec7d5bd14f71427d1e84f3dd0314c0f7b2291e5b200ac8c7c3b9256020610140a3600160005260206000f350005b633950935160005114156103725760043560a01c156102d757600080fd5b60033360e05260c052604060c02060043560e05260c052604060c0205460243581818301101561030657600080fd5b80820190509050610140526101405160033360e05260c052604060c02060043560e05260c052604060c020556101405161016052600435337f8c5be1e5ebec7d5bd14f71427d1e84f3dd0314c0f7b2291e5b200ac8c7c3b9256020610160a3600160005260206000f350005b63a457c2d760005114156104295760043560a01c1561039057600080fd5b60033360e05260c052604060c02060043560e05260c052604060c02054602435808210156103bd57600080fd5b80820390509050610140526101405160033360e05260c052604060c02060043560e05260c052604060c020556101405161016052600435337f8c5be1e5ebec7d5bd14f71427d1e84f3dd0314c0f7b2291e5b200ac8c7c3b9256020610160a3600160005260206000f350005b6340c10f1960005114156104e35760043560a01c1561044757600080fd5b600554331461045557600080fd5b6004805460243581818301101561046b57600080fd5b80820190509050815550600260043560e05260c052604060c020805460243581818301101561049957600080fd5b808201905090508155506024356101405260043560007fddf252ad1be2c89b69c2b068fc378daa952ba7f163c4a11628f55a4df523b3ef6020610140a3600160005260206000f350005b6379cc679060005114156105995760043560a01c1561050157600080fd5b600554331461050f57600080fd5b600480546024358082101561052357600080fd5b80820390509050815550600260043560e05260c052604060c02080546024358082101561054f57600080fd5b808203905090508155506024356101405260006004357fddf252ad1be2c89b69c2b068fc378daa952ba7f163c4a11628f55a4df523b3ef6020610140a3600160005260206000f350005b631652e9fc60005114156105cd5760043560a01c156105b757600080fd5b60055433146105c557600080fd5b600435600555005b63e1430e0660005114156107115760606004356004016101403760406004356004013511156105fb57600080fd5b60406024356004016101c037602060243560040135111561061b57600080fd5b3360206102806004638da5cb5b6102205261023c6005545afa61063d57600080fd5b601f3d1161064a57600080fd5b600050610280511461065b57600080fd5b61014080600060c052602060c020602082510161012060006003818352015b8261012051602002111561068d576106af565b61012051602002850151610120518501555b815160010180835281141561067a575b5050505050506101c080600160c052602060c020602082510161012060006002818352015b826101205160200211156106e757610709565b61012051602002850151610120518501555b81516001018083528114156106d4575b505050505050005b6306fdde0360005114156107ba5760008060c052602060c020610180602082540161012060006003818352015b8261012051602002111561075157610773565b61012051850154610120516020028501525b815160010180835281141561073e575b50505050505061018051806101a001818260206001820306601f82010390500336823750506020610160526040610180510160206001820306601f8201039050610160f350005b6395d89b4160005114156108635760018060c052602060c020610180602082540161012060006002818352015b826101205160200211156107fa5761081c565b61012051850154610120516020028501525b81516001018083528114156107e7575b50505050505061018051806101a001818260206001820306601f82010390500336823750506020610160526040610180510160206001820306601f8201039050610160f350005b6370a08231600051141561089d5760043560a01c1561088157600080fd5b600260043560e05260c052604060c0205460005260206000f350005b63dd62ed3e60005114156108f55760043560a01c156108bb57600080fd5b60243560a01c156108cb57600080fd5b600360043560e05260c052604060c02060243560e05260c052604060c0205460005260206000f350005b6318160ddd60005114156109115760045460005260206000f350005b6307546172600051141561092d5760055460005260206000f350005b5b60006000fd5b61015d610a910361015d60003961015d610a91036000f3"
}