{
  "address": "0x296beA2b562888497DD46236f3D3580ff07FF694",
  "abi": [
    {
      "inputs": [],
      "stateMutability": "nonpayable",
      "type": "constructor"
    },
    {
      "anonymous": false,
      "inputs": [
        {
          "indexed": true,
          "internalType": "address",
          "name": "previousOwner",
          "type": "address"
        },
        {
          "indexed": true,
          "internalType": "address",
          "name": "newOwner",
          "type": "address"
        }
      ],
      "name": "OwnershipTransferred",
      "type": "event"
    },
    {
      "inputs": [],
      "name": "owner",
      "outputs": [
        {
          "internalType": "address",
          "name": "",
          "type": "address"
        }
      ],
      "stateMutability": "view",
      "type": "function"
    },
    {
      "inputs": [],
      "name": "renounceOwnership",
      "outputs": [],
      "stateMutability": "nonpayable",
      "type": "function"
    },
    {
      "inputs": [
        {
          "internalType": "address",
          "name": "newOwner",
          "type": "address"
        }
      ],
      "name": "transferOwnership",
      "outputs": [],
      "stateMutability": "nonpayable",
      "type": "function"
    },
    {
      "inputs": [
        {
          "internalType": "contract IERC20",
          "name": "_token",
          "type": "address"
        }
      ],
      "name": "withdrawTokens",
      "outputs": [],
      "stateMutability": "nonpayable",
      "type": "function"
    }
  ],
  "transactionHash": "0xfcd0e804b20cea0c892e3e0d6cfab0a25d7b6ef5bf3395a15c93b12128b7cd80",
  "args": [],
  "solcInputHash": "2a150d5ef428ac311013fde750b58762",
  "bytecode": "0x608060405234801561001057600080fd5b5061001a3361001f565b61006f565b600080546001600160a01b038381166001600160a01b0319831681178455604051919092169283917f8be0079c531659141344cd1fd0a4f28419497f9722a3daafe3b4186f6b6457e09190a35050565b6108fd8061007e6000396000f3fe608060405234801561001057600080fd5b506004361061004c5760003560e01c806349df728c14610051578063715018a6146100665780638da5cb5b1461006e578063f2fde38b1461009a575b600080fd5b61006461005f3660046107b0565b6100ad565b005b6100646101f7565b6000546040805173ffffffffffffffffffffffffffffffffffffffff9092168252519081900360200190f35b6100646100a83660046107b0565b610284565b60005473ffffffffffffffffffffffffffffffffffffffff163314610133576040517f08c379a000000000000000000000000000000000000000000000000000000000815260206004820181905260248201527f4f776e61626c653a2063616c6c6572206973206e6f7420746865206f776e657260448201526064015b60405180910390fd5b6040517f70a082310000000000000000000000000000000000000000000000000000000081523060048201526101f490339073ffffffffffffffffffffffffffffffffffffffff8416906370a082319060240160206040518083038186803b15801561019e57600080fd5b505afa1580156101b2573d6000803e3d6000fd5b505050506040513d601f19601f820116820180604052508101906101d691906107ef565b73ffffffffffffffffffffffffffffffffffffffff841691906103b1565b50565b60005473ffffffffffffffffffffffffffffffffffffffff163314610278576040517f08c379a000000000000000000000000000000000000000000000000000000000815260206004820181905260248201527f4f776e61626c653a2063616c6c6572206973206e6f7420746865206f776e6572604482015260640161012a565b6102826000610443565b565b60005473ffffffffffffffffffffffffffffffffffffffff163314610305576040517f08c379a000000000000000000000000000000000000000000000000000000000815260206004820181905260248201527f4f776e61626c653a2063616c6c6572206973206e6f7420746865206f776e6572604482015260640161012a565b73ffffffffffffffffffffffffffffffffffffffff81166103a8576040517f08c379a000000000000000000000000000000000000000000000000000000000815260206004820152602660248201527f4f776e61626c653a206e6577206f776e657220697320746865207a65726f206160448201527f6464726573730000000000000000000000000000000000000000000000000000606482015260840161012a565b6101f481610443565b6040805173ffffffffffffffffffffffffffffffffffffffff8416602482015260448082018490528251808303909101815260649091019091526020810180517bffffffffffffffffffffffffffffffffffffffffffffffffffffffff167fa9059cbb0000000000000000000000000000000000000000000000000000000017905261043e9084906104b8565b505050565b6000805473ffffffffffffffffffffffffffffffffffffffff8381167fffffffffffffffffffffffff0000000000000000000000000000000000000000831681178455604051919092169283917f8be0079c531659141344cd1fd0a4f28419497f9722a3daafe3b4186f6b6457e09190a35050565b600061051a826040518060400160405280602081526020017f5361666545524332303a206c6f772d6c6576656c2063616c6c206661696c65648152508573ffffffffffffffffffffffffffffffffffffffff166105c49092919063ffffffff16565b80519091501561043e578080602001905181019061053891906107cd565b61043e576040517f08c379a000000000000000000000000000000000000000000000000000000000815260206004820152602a60248201527f5361666545524332303a204552433230206f7065726174696f6e20646964206e60448201527f6f74207375636365656400000000000000000000000000000000000000000000606482015260840161012a565b60606105d384846000856105dd565b90505b9392505050565b60608247101561066f576040517f08c379a000000000000000000000000000000000000000000000000000000000815260206004820152602660248201527f416464726573733a20696e73756666696369656e742062616c616e636520666f60448201527f722063616c6c0000000000000000000000000000000000000000000000000000606482015260840161012a565b843b6106d7576040517f08c379a000000000000000000000000000000000000000000000000000000000815260206004820152601d60248201527f416464726573733a2063616c6c20746f206e6f6e2d636f6e7472616374000000604482015260640161012a565b6000808673ffffffffffffffffffffffffffffffffffffffff1685876040516107009190610808565b60006040518083038185875af1925050503d806000811461073d576040519150601f19603f3d011682016040523d82523d6000602084013e610742565b606091505b509150915061075282828661075d565b979650505050505050565b6060831561076c5750816105d6565b82511561077c5782518084602001fd5b816040517f08c379a000000000000000000000000000000000000000000000000000000000815260040161012a9190610824565b6000602082840312156107c257600080fd5b81356105d6816108a5565b6000602082840312156107df57600080fd5b815180151581146105d657600080fd5b60006020828403121561080157600080fd5b5051919050565b6000825161081a818460208701610875565b9190910192915050565b6020815260008251806020840152610843816040850160208701610875565b601f017fffffffffffffffffffffffffffffffffffffffffffffffffffffffffffffffe0169190910160400192915050565b60005b83811015610890578181015183820152602001610878565b8381111561089f576000848401525b50505050565b73ffffffffffffffffffffffffffffffffffffffff811681146101f457600080fdfea2646970667358221220d2c0e66897bbbfd43f81307ec032b0d85cd93af37ac2616a33350d5b7db1777c64736f6c63430008070033",
  "devdoc": {
    "kind": "dev",
    "methods": {
      "owner()": {
        "details": "Returns the address of the current owner."
      },
      "renounceOwnership()": {
        "details": "Leaves the contract without owner. It will not be possible to call `onlyOwner` functions anymore. Can only be called by the current owner. NOTE: Renouncing ownership will leave the contract without an owner, thereby removing any functionality that is only available to the owner."
      },
      "transferOwnership(address)": {
        "details": "Transfers ownership of the contract to a new account (`newOwner`). Can only be called by the current owner."
      }
    },
    "version": 1
  },
  "userdoc": {
    "kind": "user",
    "methods": {},
    "version": 1
  },
  "storageLayout": {
    "storage": [
      {
        "astId": 7,
        "contract": "contracts/utils/Vault.sol:Vault",
        "label": "_owner",
        "offset": 0,
        "slot": "0",
        "type": "t_address"
      }
    ],
    "types": {
      "t_address": {
        "encoding": "inplace",
        "label": "address",
        "numberOfBytes": "20"
      }
    }
  }
}