{
  "address": "0x8fe44f5cce02D5BE44e3446bBc2e8132958d22B8",
  "abi": [
    {
      "name": "TokenExchange",
      "inputs": [
        {
          "type": "address",
          "name": "buyer",
          "indexed": true
        },
        {
          "type": "int128",
          "name": "sold_id",
          "indexed": false
        },
        {
          "type": "uint256",
          "name": "tokens_sold",
          "indexed": false
        },
        {
          "type": "int128",
          "name": "bought_id",
          "indexed": false
        },
        {
          "type": "uint256",
          "name": "tokens_bought",
          "indexed": false
        }
      ],
      "anonymous": false,
      "type": "event"
    },
    {
      "name": "TokenExchangeUnderlying",
      "inputs": [
        {
          "type": "address",
          "name": "buyer",
          "indexed": true
        },
        {
          "type": "int128",
          "name": "sold_id",
          "indexed": false
        },
        {
          "type": "uint256",
          "name": "tokens_sold",
          "indexed": false
        },
        {
          "type": "int128",
          "name": "bought_id",
          "indexed": false
        },
        {
          "type": "uint256",
          "name": "tokens_bought",
          "indexed": false
        }
      ],
      "anonymous": false,
      "type": "event"
    },
    {
      "name": "AddLiquidity",
      "inputs": [
        {
          "type": "address",
          "name": "provider",
          "indexed": true
        },
        {
          "type": "uint256[2]",
          "name": "token_amounts",
          "indexed": false
        },
        {
          "type": "uint256[2]",
          "name": "fees",
          "indexed": false
        },
        {
          "type": "uint256",
          "name": "invariant",
          "indexed": false
        },
        {
          "type": "uint256",
          "name": "token_supply",
          "indexed": false
        }
      ],
      "anonymous": false,
      "type": "event"
    },
    {
      "name": "RemoveLiquidity",
      "inputs": [
        {
          "type": "address",
          "name": "provider",
          "indexed": true
        },
        {
          "type": "uint256[2]",
          "name": "token_amounts",
          "indexed": false
        },
        {
          "type": "uint256[2]",
          "name": "fees",
          "indexed": false
        },
        {
          "type": "uint256",
          "name": "token_supply",
          "indexed": false
        }
      ],
      "anonymous": false,
      "type": "event"
    },
    {
      "name": "RemoveLiquidityOne",
      "inputs": [
        {
          "type": "address",
          "name": "provider",
          "indexed": true
        },
        {
          "type": "uint256",
          "name": "token_amount",
          "indexed": false
        },
        {
          "type": "uint256",
          "name": "coin_amount",
          "indexed": false
        },
        {
          "type": "uint256",
          "name": "token_supply",
          "indexed": false
        }
      ],
      "anonymous": false,
      "type": "event"
    },
    {
      "name": "RemoveLiquidityImbalance",
      "inputs": [
        {
          "type": "address",
          "name": "provider",
          "indexed": true
        },
        {
          "type": "uint256[2]",
          "name": "token_amounts",
          "indexed": false
        },
        {
          "type": "uint256[2]",
          "name": "fees",
          "indexed": false
        },
        {
          "type": "uint256",
          "name": "invariant",
          "indexed": false
        },
        {
          "type": "uint256",
          "name": "token_supply",
          "indexed": false
        }
      ],
      "anonymous": false,
      "type": "event"
    },
    {
      "name": "CommitNewAdmin",
      "inputs": [
        {
          "type": "uint256",
          "name": "deadline",
          "indexed": true
        },
        {
          "type": "address",
          "name": "admin",
          "indexed": true
        }
      ],
      "anonymous": false,
      "type": "event"
    },
    {
      "name": "NewAdmin",
      "inputs": [
        {
          "type": "address",
          "name": "admin",
          "indexed": true
        }
      ],
      "anonymous": false,
      "type": "event"
    },
    {
      "name": "TransferFeeReceiver",
      "inputs": [
        {
          "type": "address",
          "name": "fee_receiver",
          "indexed": true
        }
      ],
      "anonymous": false,
      "type": "event"
    },
    {
      "name": "CommitNewFee",
      "inputs": [
        {
          "type": "uint256",
          "name": "deadline",
          "indexed": true
        },
        {
          "type": "uint256",
          "name": "fee",
          "indexed": false
        },
        {
          "type": "uint256",
          "name": "protocol_fee",
          "indexed": false
        }
      ],
      "anonymous": false,
      "type": "event"
    },
    {
      "name": "NewFee",
      "inputs": [
        {
          "type": "uint256",
          "name": "fee",
          "indexed": false
        },
        {
          "type": "uint256",
          "name": "protocol_fee",
          "indexed": false
        }
      ],
      "anonymous": false,
      "type": "event"
    },
    {
      "name": "RampA",
      "inputs": [
        {
          "type": "uint256",
          "name": "old_A",
          "indexed": false
        },
        {
          "type": "uint256",
          "name": "new_A",
          "indexed": false
        },
        {
          "type": "uint256",
          "name": "initial_time",
          "indexed": false
        },
        {
          "type": "uint256",
          "name": "future_time",
          "indexed": false
        }
      ],
      "anonymous": false,
      "type": "event"
    },
    {
      "name": "StopRampA",
      "inputs": [
        {
          "type": "uint256",
          "name": "A",
          "indexed": false
        },
        {
          "type": "uint256",
          "name": "t",
          "indexed": false
        }
      ],
      "anonymous": false,
      "type": "event"
    },
    {
      "outputs": [],
      "inputs": [
        {
          "type": "address",
          "name": "_owner"
        },
        {
          "type": "address",
          "name": "_fee_receiver"
        },
        {
          "type": "address[2]",
          "name": "_coins"
        },
        {
          "type": "address",
          "name": "_pool_token"
        },
        {
          "type": "address",
          "name": "_base_pool"
        },
        {
          "type": "uint256",
          "name": "_A"
        },
        {
          "type": "uint256",
          "name": "_fee"
        },
        {
          "type": "uint256",
          "name": "_protocol_fee"
        }
      ],
      "stateMutability": "nonpayable",
      "type": "constructor"
    },
    {
      "name": "A",
      "outputs": [
        {
          "type": "uint256",
          "name": ""
        }
      ],
      "inputs": [],
      "stateMutability": "view",
      "type": "function",
      "gas": 5199
    },
    {
      "name": "A_precise",
      "outputs": [
        {
          "type": "uint256",
          "name": ""
        }
      ],
      "inputs": [],
      "stateMutability": "view",
      "type": "function",
      "gas": 5161
    },
    {
      "name": "get_virtual_price",
      "outputs": [
        {
          "type": "uint256",
          "name": ""
        }
      ],
      "inputs": [],
      "stateMutability": "view",
      "type": "function",
      "gas": 1012517
    },
    {
      "name": "calc_token_amount",
      "outputs": [
        {
          "type": "uint256",
          "name": ""
        }
      ],
      "inputs": [
        {
          "type": "uint256[2]",
          "name": "amounts"
        },
        {
          "type": "bool",
          "name": "is_deposit"
        }
      ],
      "stateMutability": "view",
      "type": "function",
      "gas": 4018795
    },
    {
      "name": "add_liquidity",
      "outputs": [
        {
          "type": "uint256",
          "name": ""
        }
      ],
      "inputs": [
        {
          "type": "uint256[2]",
          "name": "amounts"
        },
        {
          "type": "uint256",
          "name": "min_mint_amount"
        }
      ],
      "stateMutability": "nonpayable",
      "type": "function",
      "gas": 6256827
    },
    {
      "name": "get_dy",
      "outputs": [
        {
          "type": "uint256",
          "name": ""
        }
      ],
      "inputs": [
        {
          "type": "int128",
          "name": "i"
        },
        {
          "type": "int128",
          "name": "j"
        },
        {
          "type": "uint256",
          "name": "dx"
        }
      ],
      "stateMutability": "view",
      "type": "function",
      "gas": 2450192
    },
    {
      "name": "get_dy_underlying",
      "outputs": [
        {
          "type": "uint256",
          "name": ""
        }
      ],
      "inputs": [
        {
          "type": "int128",
          "name": "i"
        },
        {
          "type": "int128",
          "name": "j"
        },
        {
          "type": "uint256",
          "name": "dx"
        }
      ],
      "stateMutability": "view",
      "type": "function",
      "gas": 2453398
    },
    {
      "name": "exchange",
      "outputs": [
        {
          "type": "uint256",
          "name": ""
        }
      ],
      "inputs": [
        {
          "type": "int128",
          "name": "i"
        },
        {
          "type": "int128",
          "name": "j"
        },
        {
          "type": "uint256",
          "name": "dx"
        },
        {
          "type": "uint256",
          "name": "min_dy"
        }
      ],
      "stateMutability": "nonpayable",
      "type": "function",
      "gas": 2677213
    },
    {
      "name": "exchange_underlying",
      "outputs": [
        {
          "type": "uint256",
          "name": ""
        }
      ],
      "inputs": [
        {
          "type": "int128",
          "name": "i"
        },
        {
          "type": "int128",
          "name": "j"
        },
        {
          "type": "uint256",
          "name": "dx"
        },
        {
          "type": "uint256",
          "name": "min_dy"
        }
      ],
      "stateMutability": "nonpayable",
      "type": "function",
      "gas": 2691078
    },
    {
      "name": "remove_liquidity",
      "outputs": [
        {
          "type": "uint256[2]",
          "name": ""
        }
      ],
      "inputs": [
        {
          "type": "uint256",
          "name": "_amount"
        },
        {
          "type": "uint256[2]",
          "name": "min_amounts"
        }
      ],
      "stateMutability": "nonpayable",
      "type": "function",
      "gas": 163158
    },
    {
      "name": "remove_liquidity_imbalance",
      "outputs": [
        {
          "type": "uint256",
          "name": ""
        }
      ],
      "inputs": [
        {
          "type": "uint256[2]",
          "name": "amounts"
        },
        {
          "type": "uint256",
          "name": "max_burn_amount"
        }
      ],
      "stateMutability": "nonpayable",
      "type": "function",
      "gas": 6256676
    },
    {
      "name": "calc_withdraw_one_coin",
      "outputs": [
        {
          "type": "uint256",
          "name": ""
        }
      ],
      "inputs": [
        {
          "type": "uint256",
          "name": "_token_amount"
        },
        {
          "type": "int128",
          "name": "i"
        }
      ],
      "stateMutability": "view",
      "type": "function",
      "gas": 4389
    },
    {
      "name": "remove_liquidity_one_coin",
      "outputs": [
        {
          "type": "uint256",
          "name": ""
        }
      ],
      "inputs": [
        {
          "type": "uint256",
          "name": "_token_amount"
        },
        {
          "type": "int128",
          "name": "i"
        },
        {
          "type": "uint256",
          "name": "_min_amount"
        }
      ],
      "stateMutability": "nonpayable",
      "type": "function",
      "gas": 3946616
    },
    {
      "name": "ramp_A",
      "outputs": [],
      "inputs": [
        {
          "type": "uint256",
          "name": "_future_A"
        },
        {
          "type": "uint256",
          "name": "_future_time"
        }
      ],
      "stateMutability": "nonpayable",
      "type": "function",
      "gas": 151894
    },
    {
      "name": "stop_ramp_A",
      "outputs": [],
      "inputs": [],
      "stateMutability": "nonpayable",
      "type": "function",
      "gas": 148655
    },
    {
      "name": "commit_new_fee",
      "outputs": [],
      "inputs": [
        {
          "type": "uint256",
          "name": "new_fee"
        },
        {
          "type": "uint256",
          "name": "new_protocol_fee"
        }
      ],
      "stateMutability": "nonpayable",
      "type": "function",
      "gas": 110491
    },
    {
      "name": "apply_new_fee",
      "outputs": [],
      "inputs": [],
      "stateMutability": "nonpayable",
      "type": "function",
      "gas": 97272
    },
    {
      "name": "revert_new_parameters",
      "outputs": [],
      "inputs": [],
      "stateMutability": "nonpayable",
      "type": "function",
      "gas": 21925
    },
    {
      "name": "commit_transfer_ownership",
      "outputs": [],
      "inputs": [
        {
          "type": "address",
          "name": "_owner"
        }
      ],
      "stateMutability": "nonpayable",
      "type": "function",
      "gas": 74663
    },
    {
      "name": "apply_transfer_ownership",
      "outputs": [],
      "inputs": [],
      "stateMutability": "nonpayable",
      "type": "function",
      "gas": 60740
    },
    {
      "name": "revert_transfer_ownership",
      "outputs": [],
      "inputs": [],
      "stateMutability": "nonpayable",
      "type": "function",
      "gas": 22015
    },
    {
      "name": "transfer_fee_receiver",
      "outputs": [],
      "inputs": [
        {
          "type": "address",
          "name": "_receiver"
        }
      ],
      "stateMutability": "nonpayable",
      "type": "function",
      "gas": 38288
    },
    {
      "name": "protocol_balances",
      "outputs": [
        {
          "type": "uint256",
          "name": ""
        }
      ],
      "inputs": [
        {
          "type": "uint256",
          "name": "i"
        }
      ],
      "stateMutability": "view",
      "type": "function",
      "gas": 3541
    },
    {
      "name": "withdraw_protocol_fees",
      "outputs": [],
      "inputs": [],
      "stateMutability": "nonpayable",
      "type": "function",
      "gas": 9971
    },
    {
      "name": "kill_me",
      "outputs": [],
      "inputs": [],
      "stateMutability": "nonpayable",
      "type": "function",
      "gas": 38028
    },
    {
      "name": "unkill_me",
      "outputs": [],
      "inputs": [],
      "stateMutability": "nonpayable",
      "type": "function",
      "gas": 22165
    },
    {
      "name": "coins",
      "outputs": [
        {
          "type": "address",
          "name": ""
        }
      ],
      "inputs": [
        {
          "type": "uint256",
          "name": "arg0"
        }
      ],
      "stateMutability": "view",
      "type": "function",
      "gas": 2250
    },
    {
      "name": "balances",
      "outputs": [
        {
          "type": "uint256",
          "name": ""
        }
      ],
      "inputs": [
        {
          "type": "uint256",
          "name": "arg0"
        }
      ],
      "stateMutability": "view",
      "type": "function",
      "gas": 2280
    },
    {
      "name": "fee",
      "outputs": [
        {
          "type": "uint256",
          "name": ""
        }
      ],
      "inputs": [],
      "stateMutability": "view",
      "type": "function",
      "gas": 2201
    },
    {
      "name": "protocol_fee",
      "outputs": [
        {
          "type": "uint256",
          "name": ""
        }
      ],
      "inputs": [],
      "stateMutability": "view",
      "type": "function",
      "gas": 2231
    },
    {
      "name": "owner",
      "outputs": [
        {
          "type": "address",
          "name": ""
        }
      ],
      "inputs": [],
      "stateMutability": "view",
      "type": "function",
      "gas": 2261
    },
    {
      "name": "fee_receiver",
      "outputs": [
        {
          "type": "address",
          "name": ""
        }
      ],
      "inputs": [],
      "stateMutability": "view",
      "type": "function",
      "gas": 2291
    },
    {
      "name": "token",
      "outputs": [
        {
          "type": "address",
          "name": ""
        }
      ],
      "inputs": [],
      "stateMutability": "view",
      "type": "function",
      "gas": 2321
    },
    {
      "name": "base_pool",
      "outputs": [
        {
          "type": "address",
          "name": ""
        }
      ],
      "inputs": [],
      "stateMutability": "view",
      "type": "function",
      "gas": 2351
    },
    {
      "name": "base_virtual_price",
      "outputs": [
        {
          "type": "uint256",
          "name": ""
        }
      ],
      "inputs": [],
      "stateMutability": "view",
      "type": "function",
      "gas": 2381
    },
    {
      "name": "base_cache_updated",
      "outputs": [
        {
          "type": "uint256",
          "name": ""
        }
      ],
      "inputs": [],
      "stateMutability": "view",
      "type": "function",
      "gas": 2411
    },
    {
      "name": "base_coins",
      "outputs": [
        {
          "type": "address",
          "name": ""
        }
      ],
      "inputs": [
        {
          "type": "uint256",
          "name": "arg0"
        }
      ],
      "stateMutability": "view",
      "type": "function",
      "gas": 2550
    },
    {
      "name": "initial_A",
      "outputs": [
        {
          "type": "uint256",
          "name": ""
        }
      ],
      "inputs": [],
      "stateMutability": "view",
      "type": "function",
      "gas": 2471
    },
    {
      "name": "future_A",
      "outputs": [
        {
          "type": "uint256",
          "name": ""
        }
      ],
      "inputs": [],
      "stateMutability": "view",
      "type": "function",
      "gas": 2501
    },
    {
      "name": "initial_A_time",
      "outputs": [
        {
          "type": "uint256",
          "name": ""
        }
      ],
      "inputs": [],
      "stateMutability": "view",
      "type": "function",
      "gas": 2531
    },
    {
      "name": "future_A_time",
      "outputs": [
        {
          "type": "uint256",
          "name": ""
        }
      ],
      "inputs": [],
      "stateMutability": "view",
      "type": "function",
      "gas": 2561
    },
    {
      "name": "admin_actions_deadline",
      "outputs": [
        {
          "type": "uint256",
          "name": ""
        }
      ],
      "inputs": [],
      "stateMutability": "view",
      "type": "function",
      "gas": 2591
    },
    {
      "name": "transfer_ownership_deadline",
      "outputs": [
        {
          "type": "uint256",
          "name": ""
        }
      ],
      "inputs": [],
      "stateMutability": "view",
      "type": "function",
      "gas": 2621
    },
    {
      "name": "future_fee",
      "outputs": [
        {
          "type": "uint256",
          "name": ""
        }
      ],
      "inputs": [],
      "stateMutability": "view",
      "type": "function",
      "gas": 2651
    },
    {
      "name": "future_protocol_fee",
      "outputs": [
        {
          "type": "uint256",
          "name": ""
        }
      ],
      "inputs": [],
      "stateMutability": "view",
      "type": "function",
      "gas": 2681
    },
    {
      "name": "future_owner",
      "outputs": [
        {
          "type": "address",
          "name": ""
        }
      ],
      "inputs": [],
      "stateMutability": "view",
      "type": "function",
      "gas": 2711
    }
  ],
  "transactionHash": "0x1e07fdb9207ee94960a80f0b3aa1dde0538920ef0a3c253bb130a5c4ede96deb",
  "args": [
    "0x6ADf17424F6E68733C71209471dA50e155B5C5B2",
    "0xf042F2dABba35f83eb126116f7Ff8dAdfC631E97",
    [
      "0x5ce9F0B6AFb36135b5ddBF11705cEB65E634A9dC",
      "0xfF79D5bff48e1C01b722560D6ffDfCe9FC883587"
    ],
    "0x94A7644E4D9CA0e685226254f88eAdc957D3c263",
    "0xc90dB0d8713414d78523436dC347419164544A3f",
    100,
    4000000,
    10000000000
  ],
  "bytecode": "0x610120615c0d610140396020615c0d60c03960c05160a01c1561002157600080fd5b60206020615c0d0160c03960c05160a01c1561003c57600080fd5b60206040615c0d0160c03960c05160a01c1561005757600080fd5b60206060615c0d0160c03960c05160a01c1561007257600080fd5b60206080615c0d0160c03960c05160a01c1561008d57600080fd5b602060a0615c0d0160c03960c05160a01c156100a857600080fd5b61026060006002818352015b600061018061026051600281106100ca57600080fd5b6020020151186100d957600080fd5b5b81516001018083528114156100b4575b5050600060c052602060c0206101805181556101a051600182015550610200516064808202821582848304141761012057600080fd5b80905090509050600b55610200516064808202821582848304141761014457600080fd5b80905090509050600c556102205160025561024051600355610140516004556101605160055542624f1a0081818301101561017e57600080fd5b808201905090506015556101c0516006556101e05160075560206102c0600463bb7b8b806102605261027c6101e0515afa6101b857600080fd5b601f3d116101c557600080fd5b6000506102c0516008554260095561026060006003818352015b6020610320602463c66106576102a05261026051600081121561020157600080fd5b6102c0526102bc6101e0515afa61021757600080fd5b601f3d1161022457600080fd5b600050610320516102805261028051610260516003811061024457600080fd5b600a60c052602060c020015560006004610300527f095ea7b3000000000000000000000000000000000000000000000000000000006103205261030060048060208461036001018260208501600060045af15050805182019150506101e0516020826103600101526020810190507fffffffffffffffffffffffffffffffffffffffffffffffffffffffffffffffff602082610360010152602081019050806103605261036090508051602001806104008284600060045af161030657600080fd5b505060206104c0610400516104206000610280515af161032557600080fd5b60203d808211156103365780610338565b815b905090506104a0526104a08051602001806102a08284600060045af161035d57600080fd5b505060006102a05111156103b0576102a080602001516000825180602090131561038657600080fd5b809190121561039457600080fd5b806020036101000a820490509050905015156103af57600080fd5b5b5b81516001018083528114156101df575b5050615bf556341561000a57600080fd5b600436101561001857615827565b600035601c526000156101c1575b61014052600e5461016052600c5461018052610160514210156101ae57600b546101a052600d546101c0526101a051610180511115610107576101a051610180516101a0518082101561007857600080fd5b80820390509050426101c0518082101561009157600080fd5b8082039050905080820282158284830414176100ac57600080fd5b80905090509050610160516101c051808210156100c857600080fd5b8082039050905080806100da57600080fd5b8204905090508181830110156100ef57600080fd5b808201905090506000526000516101405156506101a9565b6101a0516101a051610180518082101561012057600080fd5b80820390509050426101c0518082101561013957600080fd5b80820390509050808202821582848304141761015457600080fd5b80905090509050610160516101c0518082101561017057600080fd5b80820390509050808061018257600080fd5b8204905090508082101561019557600080fd5b808203905090506000526000516101405156505b6101bf565b610180516000526000516101405156505b005b63f446c1d060005114156101f45760065801610026565b610140526101405160648082049050905060005260206000f350005b6376a2f0f0600051141561021e5760065801610026565b610140526101405160005260206000f350005b600015610325575b6101605261014052670de0b6b3a764000061018052670de0b6b3a76400006101a052610140516101a0526101c060006002818352015b6101806101c0516002811061027057600080fd5b60200201516101c0516002811061028657600080fd5b600160c052602060c020015480820282158284830414176102a657600080fd5b80905090509050670de0b6b3a7640000808204905090506101806101c051600281106102d157600080fd5b60200201525b815160010180835281141561025c575b505060406101c0525b60006101c0511115156103025761031e565b60206101c05103610180015160206101c051036101c0526102f0565b6101605156005b600015610430575b6101a052610140526101605261018052670de0b6b3a76400006101c052670de0b6b3a76400006101e052610140516101e05261020060006002818352015b6101c0610200516002811061037f57600080fd5b6020020151610160610200516002811061039857600080fd5b602002015180820282158284830414176103b157600080fd5b80905090509050670de0b6b3a7640000808204905090506101c061020051600281106103dc57600080fd5b60200201525b815160010180835281141561036b575b50506040610200525b60006102005111151561040d57610429565b602061020051036101c0015160206102005103610200526103fb565b6101a05156005b6000156104ca575b6101405260095461025881818301101561045157600080fd5b808201905090504211156104b85760206101e0600463bb7b8b806101805261019c6007545afa61048057600080fd5b601f3d1161048d57600080fd5b6000506101e051610160526101605160085542600955610160516000526000516101405156506104c8565b6008546000526000516101405156505b005b600015610551575b610140526009546102588181830110156104eb57600080fd5b8082019050905042111561053f5760206101c0600463bb7b8b806101605261017c6007545afa61051a57600080fd5b601f3d1161052757600080fd5b6000506101c05160005260005161014051565061054f565b6008546000526000516101405156505b005b600015610859575b6101a0526101405261016052610180526040366101c03761022060006002818352015b602061022051026101400151610200526101c08051610200518181830110156105a457600080fd5b808201905090508152505b815160010180835281141561057c575b50506101c05115156105da5760006000526000516101a05156505b6101c0516102005261018051600280820282158284830414176105fc57600080fd5b8090509050905061022052610240600060ff818352015b61020051610260526102a060006002818352015b60206102a051026101400151610280526102605161020051808202821582848304141761065357600080fd5b80905090509050610280516002808202821582848304141761067457600080fd5b80905090509050808061068657600080fd5b820490509050610260525b8151600101808352811415610627575b5050610200516101e052610220516101c05180820282158284830414176106c757600080fd5b8090509050905060648082049050905061026051600280820282158284830414176106f157600080fd5b8090509050905081818301101561070757600080fd5b8082019050905061020051808202821582848304141761072657600080fd5b809050905090506102205160648082101561074057600080fd5b8082039050905061020051808202821582848304141761075f57600080fd5b80905090509050606480820490509050600361026051808202821582848304141761078957600080fd5b8090509050905081818301101561079f57600080fd5b8082019050905080806107b157600080fd5b820490509050610200526101e051610200511115610806576001610200516101e051808210156107e057600080fd5b80820390509050111515610801576102005160005250506000516101a05156505b61083f565b60016101e051610200518082101561081d57600080fd5b8082039050905011151561083e576102005160005250506000516101a05156505b5b5b8151600101808352811415610613575b505060006000fd005b600015610970575b6101c0526101405261016052610180526101a0526101405161016051610180516101a0516101c0516101e051610200516101405161022052610160516102405261018051610260526102605161024051610220516006580161032d565b6102c0526102e052610200526101e0526101c0526101a0526101805261016052610140526102c080516101e052806020015161020052506101405161016051610180516101a0516101c0516101e051610200516101e0516102205261020051610240526101a0516102605261026051610240516102205160065801610559565b6102c052610200526101e0526101c0526101a0526101805261016052610140526102c0516000526000516101c0515650005b63bb7b8b806000511415610af2576101405160065801610026565b610160526101405261016051610140526101405161016051600658016104d2565b61018052610160526101405261018051610160526101405161016051610180516101a051610160516101c0526101c05160065801610226565b61022052610240526101a05261018052610160526101405261022080516101805280602001516101a052506101405161016051610180516101a0516101c051610180516101e0526101a05161020052610140516102205261022051610200516101e05160065801610559565b610280526101c0526101a052610180526101605261014052610280516101c052602061026060046318160ddd6102005261021c6006545afa610a9257600080fd5b601f3d11610a9f57600080fd5b600050610260516101e0526101c051670de0b6b3a76400008082028215828483041417610acb57600080fd5b809050905090506101e0518080610ae157600080fd5b82049050905060005260206000f350005b63ed8e84f36000511415610de75760443560011c15610b1057600080fd5b6101405160065801610026565b610160526101405261016051610140526101405161016051600658016104d2565b610180526101605261014052610180516101605260018060c052602060c020546101805260018160c052602060c02001546101a052506101405161016051610180516101a0516101c051610160516101e05261018051610200526101a0516102205261014051610240526102405161022051610200516101e05160065801610861565b6102a0526101c0526101a0526101805261016052610140526102a0516101c0526101e060006002818352015b60443515610c45576101806101e05160028110610c0957600080fd5b60200201805160046101e05160028110610c2257600080fd5b6020020135818183011015610c3657600080fd5b80820190509050815250610c8f565b6101806101e05160028110610c5957600080fd5b60200201805160046101e05160028110610c7257600080fd5b602002013580821015610c8457600080fd5b808203905090508152505b5b8151600101808352811415610bed575b50506101405161016051610180516101a0516101c0516101e051610160516102005261018051610220526101a0516102405261014051610260526102605161024051610220516102005160065801610861565b6102c0526101e0526101c0526101a0526101805261016052610140526102c0516101e052602061028060046318160ddd6102205261023c6006545afa610d3857600080fd5b601f3d11610d4557600080fd5b600050610280516102005260006102205260443515610d83576101e0516101c05180821015610d7357600080fd5b8082039050905061022052610da4565b6101c0516101e05180821015610d9857600080fd5b80820390509050610220525b61022051610200518082028215828483041417610dc057600080fd5b809050905090506101c0518080610dd657600080fd5b82049050905060005260206000f350005b630b4c7e4d60005114156116455762ffffff5415610e0457600080fd5b600162ffffff5560145415610e1857600080fd5b6101405160065801610026565b61016052610140526101605161014052610140516101605160065801610438565b6101805261016052610140526101805161016052602061020060046318160ddd6101a0526101bc6006545afa610e7b57600080fd5b601f3d11610e8857600080fd5b600050610200516101805260025460028082028215828483041417610eac57600080fd5b809050905090506004808204905090506101a0526003546101c05260006101e05260018060c052602060c020546102005260018160c052602060c020015461022052506000610180511115610f81576101405161016051610180516101a0516101c0516101e0516102005161022051610160516102405261020051610260526102205161028052610140516102a0526102a05161028051610260516102405160065801610861565b6103005261022052610200526101e0526101c0526101a052610180526101605261014052610300516101e0525b6102005161024052610220516102605261028060006002818352015b610180511515610fcc57600060046102805160028110610fbc57600080fd5b602002013511610fcb57600080fd5b5b6102006102805160028110610fe057600080fd5b602002015160046102805160028110610ff857600080fd5b602002013581818301101561100c57600080fd5b80820190509050610240610280516002811061102757600080fd5b60200201525b8151600101808352811415610f9d575b50506101405161016051610180516101a0516101c0516101e0516102005161022051610240516102605161028051610160516102a052610240516102c052610260516102e0526101405161030052610300516102e0516102c0516102a05160065801610861565b6103605261028052610260526102405261022052610200526101e0526101c0526101a05261018052610160526101405261036051610280526101e05161028051116110ee57600080fd5b6040366102a037610280516102e05260006101805111156113d35761030060006002818352015b61028051610200610300516002811061112d57600080fd5b6020020151808202821582848304141761114657600080fd5b809050905090506101e051808061115c57600080fd5b82049050905061032052600061034052610240610300516002811061118057600080fd5b60200201516103205111156111c9576103205161024061030051600281106111a757600080fd5b6020020151808210156111b957600080fd5b80820390509050610340526111ff565b61024061030051600281106111dd57600080fd5b602002015161032051808210156111f357600080fd5b80820390509050610340525b6101a05161034051808202821582848304141761121b57600080fd5b809050905090506402540be400808204905090506102a0610300516002811061124357600080fd5b6020020152610240610300516002811061125c57600080fd5b60200201516102a0610300516002811061127557600080fd5b60200201516101c051808202821582848304141761129257600080fd5b809050905090506402540be40080820490509050808210156112b357600080fd5b8082039050905061030051600281106112cb57600080fd5b600160c052602060c020015561024061030051600281106112eb57600080fd5b6020020180516102a0610300516002811061130557600080fd5b60200201518082101561131757600080fd5b808203905090508152505b8151600101808352811415611115575b5050610140610300525b6103005151602061030051016103005261030061030051101561135e5761133c565b61016051610320526102405161034052610260516103605261014051610380526103805161036051610340516103205160065801610861565b6103e0526102e0610300525b61030051526020610300510361030052610140610300511015156113c6576113a3565b6103e0516102e0526113ee565b600160c052602060c020610240518155610260516001820155505b60006103005261018051151561140b576102805161030052611460565b610180516102e0516101e0518082101561142457600080fd5b80820390509050808202821582848304141761143f57600080fd5b809050905090506101e051808061145557600080fd5b820490509050610300525b60443561030051101515156114b4576308c379a0610320526020610340526014610360527f536c697070616765207363726577656420796f750000000000000000000000006103805261036050606461033cfd5b61032060006002818352015b6000600461032051600281106114d557600080fd5b6020020135111561156157602061040060646323b872dd61034052336103605230610380526004610320516002811061150d57600080fd5b60200201356103a05261035c6000610320516002811061152c57600080fd5b600060c052602060c02001545af161154357600080fd5b601f3d1161155057600080fd5b6000506104005161156057600080fd5b5b5b81516001018083528114156114c0575b505060206103c060446340c10f19610320523361034052610300516103605261033c60006006545af16115a457600080fd5b601f3d116115b157600080fd5b6000506103c05060043561032052602435610340526102a051610360526102c05161038052610280516103a05261018051610300518181830110156115f557600080fd5b808201905090506103c052337f26f55a85081d24974e85c6c00045d0f0453991e95873f52bff0d21af4079a76860c0610320a261030051600052600062ffffff5560206000f350600062ffffff55005b600015611ac7575b6101e0526101405261016052610180526101a0526101c05261016051610140511861167757600080fd5b600061016051121561168857600080fd5b6002610160511261169857600080fd5b60006101405112156116a957600080fd5b600261014051126116b957600080fd5b6101405161016051610180516101a0516101c0516101e0516102005160065801610026565b61022052610200526101e0526101c0526101a05261018052610160526101405261022051610200526101405161016051610180516101a0516101c0516101e05161020051610220516101a051610240526101c05161026052610200516102805261028051610260516102405160065801610559565b6102e05261022052610200526101e0526101c0526101a0526101805261016052610140526102e0516102205260603661024037610220516102a05261020051600280820282158284830414176117a857600080fd5b809050905090506102c0526102e060006002818352015b610140516102e05114156117da576101805161026052611810565b610160516102e051181561180a576101a06102e051600281106117fc57600080fd5b60200201516102605261180f565b61188c565b5b61024080516102605181818301101561182857600080fd5b808201905090508152506102a05161022051808202821582848304141761184e57600080fd5b80905090509050610260516002808202821582848304141761186f57600080fd5b80905090509050808061188157600080fd5b8204905090506102a0525b81516001018083528114156117bf575b50506102a0516102205180820282158284830414176118ba57600080fd5b80905090509050606480820282158284830414176118d757600080fd5b809050905090506102c051600280820282158284830414176118f857600080fd5b80905090509050808061190a57600080fd5b8204905090506102a05261024051610220516064808202821582848304141761193257600080fd5b809050905090506102c051808061194857600080fd5b82049050905081818301101561195d57600080fd5b808201905090506102e0526102205161030052610320600060ff818352015b6103005161028052610300516103005180820282158284830414176119a057600080fd5b809050905090506102a0518181830110156119ba57600080fd5b8082019050905060026103005180820282158284830414176119db57600080fd5b809050905090506102e0518181830110156119f557600080fd5b808201905090506102205180821015611a0d57600080fd5b808203905090508080611a1f57600080fd5b8204905090506103005261028051610300511115611a74576001610300516102805180821015611a4e57600080fd5b80820390509050111515611a6f576103005160005250506000516101e05156505b611aad565b6001610280516103005180821015611a8b57600080fd5b80820390509050111515611aac576103005160005250506000516101e05156505b5b5b815160010180835281141561197c575b505060006000fd005b635e0d443f6000511415611d8c5760043580806000811215611ae557195b607f1c15611af257600080fd5b90505060243580806000811215611b0557195b607f1c15611b1257600080fd5b905050670de0b6b3a764000061014052670de0b6b3a7640000610160526101405161016051600658016104d2565b61018052610160526101405261018051610160526101405161016051610180516101a051610160516101c0526101c05160065801610226565b61022052610240526101a05261018052610160526101405261022080516101805280602001516101a0525061018060043560028110611bb757600080fd5b602002015160443561014060043560028110611bd257600080fd5b60200201518082028215828483041417611beb57600080fd5b80905090509050670de0b6b3a764000080820490509050818183011015611c1157600080fd5b808201905090506101c0526101405161016051610180516101a0516101c0516101e05160043561020052602435610220526101c0516102405261018051610260526101a0516102805261028051610260516102405161022051610200516006580161164d565b6102e0526101e0526101c0526101a0526101805261016052610140526102e0516101e05261018060243560028110611cae57600080fd5b60200201516101e05180821015611cc457600080fd5b80820390509050600180821015611cda57600080fd5b8082039050905061020052600254610200518082028215828483041417611d0057600080fd5b809050905090506402540be4008082049050905061022052610200516102205180821015611d2d57600080fd5b80820390509050670de0b6b3a76400008082028215828483041417611d5157600080fd5b8090509050905061014060243560028110611d6b57600080fd5b60200201518080611d7b57600080fd5b82049050905060005260206000f350005b6307211ef7600051141561232d5760043580806000811215611daa57195b607f1c15611db757600080fd5b90505060243580806000811215611dca57195b607f1c15611dd757600080fd5b90505061014051600658016104d2565b61016052610140526101605161014052610140516101605161018051610140516101a0526101a05160065801610226565b61020052610220526101805261016052610140526102008051610160528060200151610180525060016101a05260016101c0526007546101e052600435600180820380806000811215611e6757195b607f1c15611e7457600080fd5b90509050905061020052602435600180820380806000811215611e9357195b607f1c15611ea057600080fd5b905090509050610220526001610240526001610260526000610200511215611eca57600435610240525b6000610220511215611ede57602435610260525b6000610280526000610200511215611f5d5761016060043560028110611f0357600080fd5b60200201516044356101a060043560028110611f1e57600080fd5b60200201518082028215828483041417611f3757600080fd5b80905090509050818183011015611f4d57600080fd5b8082019050905061028052612110565b60006102205112156120b8576060366102a0376044356102a06102005160038110611f8757600080fd5b602002015260206103e06084633883e119610300526102a051610320526102c051610340526102e0516103605260016103805261031c6101e0515afa611fcc57600080fd5b601f3d11611fd957600080fd5b6000506103e051610140518082028215828483041417611ff857600080fd5b80905090509050670de0b6b3a764000080820490509050610280526102808051610280516020610360600463ddca3f436103005261031c6101e0515afa61203e57600080fd5b601f3d1161204b57600080fd5b60005061036051808202821582848304141761206657600080fd5b809050905090506404a817c800808204905090508082101561208757600080fd5b808203905090508152506102808051610180518181830110156120a957600080fd5b8082019050905081525061210f565b60206103606064635e0d443f6102a052610200516102c052610220516102e052604435610300526102bc6101e0515afa6120f157600080fd5b601f3d116120fe57600080fd5b6000506103605160005260206000f3505b5b6101405161016051610180516101a0516101c0516101e05161020051610220516102405161026051610280516102a051610240516102c052610260516102e0526102805161030052610160516103205261018051610340526103405161032051610300516102e0516102c0516006580161164d565b6103a0526102a05261028052610260526102405261022052610200526101e0526101c0526101a0526101805261016052610140526103a0516102a05261016061026051600281106121d557600080fd5b60200201516102a051808210156121eb57600080fd5b8082039050905060018082101561220157600080fd5b808203905090506102c0526102c0516002546102c051808202821582848304141761222b57600080fd5b809050905090506402540be400808204905090508082101561224c57600080fd5b808203905090506102c052600061022051121561229a576102c080516101a0610260516002811061227c57600080fd5b6020020151808061228c57600080fd5b82049050905081525061231e565b6020610380604463cc2b27d76102e0526102c051670de0b6b3a764000080820282158284830414176122cb57600080fd5b809050905090506101405180806122e157600080fd5b8204905090506103005261022051610320526102fc6101e0515afa61230557600080fd5b601f3d1161231257600080fd5b600050610380516102c0525b6102c05160005260206000f350005b633df0212460005114156129275762ffffff541561234a57600080fd5b600162ffffff556004358080600081121561236157195b607f1c1561236e57600080fd5b9050506024358080600081121561238157195b607f1c1561238e57600080fd5b9050506014541561239e57600080fd5b670de0b6b3a764000061014052670de0b6b3a764000061016052610140516101605160065801610438565b610180526101605261014052610180516101605260018060c052602060c020546101805260018160c052602060c02001546101a052506101405161016051610180516101a0516101c0516101e051610160516102005261018051610220526101a051610240526102405161022051610200516006580161032d565b6102a0526102c0526101e0526101c0526101a0526101805261016052610140526102a080516101c05280602001516101e052506101c06004356002811061248a57600080fd5b6020020151604435610140600435600281106124a557600080fd5b602002015180820282158284830414176124be57600080fd5b80905090509050670de0b6b3a7640000808204905090508181830110156124e457600080fd5b80820190509050610200526101405161016051610180516101a0516101c0516101e0516102005161022051600435610240526024356102605261020051610280526101c0516102a0526101e0516102c0526102c0516102a0516102805161026051610240516006580161164d565b6103205261022052610200526101e0526101c0526101a05261018052610160526101405261032051610220526101c06024356002811061259157600080fd5b602002015161022051808210156125a757600080fd5b808203905090506001808210156125bd57600080fd5b80820390509050610240526102405160025480820282158284830414176125e357600080fd5b809050905090506402540be400808204905090506102605261024051610260518082101561261057600080fd5b80820390509050670de0b6b3a7640000808202821582848304141761263457600080fd5b809050905090506101406024356002811061264e57600080fd5b6020020151808061265e57600080fd5b8204905090506102405260643561024051101515156126bc576308c379a06102805260206102a05260176102c0527f546f6f2066657720636f696e7320696e20726573756c740000000000000000006102e0526102c050606461029cfd5b6102605160035480820282158284830414176126d757600080fd5b809050905090506402540be400808204905090506102805261028051670de0b6b3a7640000808202821582848304141761271057600080fd5b809050905090506101406024356002811061272a57600080fd5b6020020151808061273a57600080fd5b820490509050610280526101806004356002811061275757600080fd5b602002015160443581818301101561276e57600080fd5b808201905090506004356002811061278557600080fd5b600160c052602060c0200155610180602435600281106127a457600080fd5b602002015161024051808210156127ba57600080fd5b8082039050905061028051808210156127d257600080fd5b80820390509050602435600281106127e957600080fd5b600160c052602060c0200155602061036060646323b872dd6102a052336102c052306102e052604435610300526102bc60006004356002811061282b57600080fd5b600060c052602060c02001545af161284257600080fd5b601f3d1161284f57600080fd5b6000506103605161285f57600080fd5b6020610340604463a9059cbb6102a052336102c052610240516102e0526102bc60006024356002811061289157600080fd5b600060c052602060c02001545af16128a857600080fd5b601f3d116128b557600080fd5b600050610340516128c557600080fd5b6004356102a0526044356102c0526024356102e0526102405161030052337f8b3e96f2b889fa771c53c981b40daf005f63f637f1869f707052d15a3dd9714060806102a0a261024051600052600062ffffff5560206000f350600062ffffff55005b63a6417ed660005114156135f65762ffffff541561294457600080fd5b600162ffffff556004358080600081121561295b57195b607f1c1561296857600080fd5b9050506024358080600081121561297b57195b607f1c1561298857600080fd5b9050506014541561299857600080fd5b670de0b6b3a764000061014052670de0b6b3a764000061016052610140516101605160065801610438565b6101805261016052610140526101805161016052600754610180526004356001808203808060008112156129f357195b607f1c15612a0057600080fd5b9050905090506101a052602435600180820380806000811215612a1f57195b607f1c15612a2c57600080fd5b9050905090506101c05260016101e05260016102005260006101a0511215612a56576004356101e0525b60006101c0511215612a6a57602435610200525b6040366102203760006101a0511215612aa25760043560028110612a8d57600080fd5b600060c052602060c020015461024052612ac4565b6101a05160038110612ab357600080fd5b600a60c052602060c0200154610240525b60006102605260006101c0511215612afb5760243560028110612ae657600080fd5b600060c052602060c020015461026052612b1d565b6101c05160038110612b0c57600080fd5b600a60c052602060c0200154610260525b6044356102805260006004610300527f23b872dd000000000000000000000000000000000000000000000000000000006103205261030060048060208461036001018260208501600060045af15050805182019150503360208261036001015260208101905030602082610360010152602081019050604435602082610360010152602081019050806103605261036090508051602001806104208284600060045af1612bc957600080fd5b50506020610500610420516104406000610240515af1612be857600080fd5b60203d80821115612bf95780612bfb565b815b905090506104e0526104e08051602001806102a08284600060045af1612c2057600080fd5b505060006102a0511115612c73576102a0806020015160008251806020901315612c4957600080fd5b8091901215612c5757600080fd5b806020036101000a82049050905090501515612c7257600080fd5b5b60006101a0511215612c86576001612c8e565b60006101c051125b5b1561336d5760018060c052602060c020546103005260018160c052602060c02001546103205250610140610380525b61038051516020610380510161038052610380610380511015612ce057612cbe565b610160516103a052610300516103c052610320516103e0526103e0516103c0516103a0516006580161032d565b6104405261046052610360610380525b6103805152602061038051036103805261014061038051101515612d4057612d1d565b6104408051610340528060200151610360525060006103805260006101a0511215612de35761034060043560028110612d7857600080fd5b60200201516102805161014060043560028110612d9457600080fd5b60200201518082028215828483041417612dad57600080fd5b80905090509050670de0b6b3a764000080820490509050818183011015612dd357600080fd5b8082019050905061038052612f58565b6060366103a037610280516103a06101a05160038110612e0257600080fd5b60200201526001600060c052602060c02001546104005260206104a060246370a0823161042052306104405261043c610400515afa612e4057600080fd5b601f3d11612e4d57600080fd5b6000506104a05161038052610180513b612e6657600080fd5b600060006084634515cef3610420526103a051610440526103c051610460526103e0516104805260006104a05261043c6000610180515af1612ea757600080fd5b60206104a060246370a0823161042052306104405261043c610400515afa612ece57600080fd5b601f3d11612edb57600080fd5b6000506104a0516103805180821015612ef357600080fd5b808203905090506102805261028051610160518082028215828483041417612f1a57600080fd5b80905090509050670de0b6b3a76400008082049050905061038052610380805161036051818183011015612f4d57600080fd5b808201905090508152505b6101406103c0525b6103c0515160206103c051016103c0526103c06103c0511015612f8257612f60565b6101e0516103e0526102005161040052610380516104205261034051610440526103605161046052610460516104405161042051610400516103e0516006580161164d565b6104c0526103a06103c0525b6103c0515260206103c051036103c0526101406103c051101515612ff657612fd3565b6104c0516103a052610340610200516002811061301257600080fd5b60200201516103a0518082101561302857600080fd5b8082039050905060018082101561303e57600080fd5b808203905090506102205261022051600254808202821582848304141761306457600080fd5b809050905090506402540be400808204905090506103c052610220516103c0518082101561309157600080fd5b80820390509050670de0b6b3a764000080820282158284830414176130b557600080fd5b8090509050905061014061020051600281106130d057600080fd5b602002015180806130e057600080fd5b820490509050610220526103c051600354808202821582848304141761310557600080fd5b809050905090506402540be400808204905090506103e0526103e051670de0b6b3a7640000808202821582848304141761313e57600080fd5b80905090509050610140610200516002811061315957600080fd5b6020020151808061316957600080fd5b8204905090506103e0526103006101e0516002811061318757600080fd5b60200201516102805181818301101561319f57600080fd5b808201905090506101e051600281106131b757600080fd5b600160c052602060c020015561030061020051600281106131d757600080fd5b602002015161022051808210156131ed57600080fd5b808203905090506103e0518082101561320557600080fd5b80820390509050610200516002811061321d57600080fd5b600160c052602060c020015560006101c0511215156133145760206104a060246370a0823161042052306104405261043c610260515afa61325d57600080fd5b601f3d1161326a57600080fd5b6000506104a05161040052610180513b61328357600080fd5b600060006064631a4d01d26104205261022051610440526101c0516104605260006104805261043c6000610180515af16132bc57600080fd5b60206104a060246370a0823161042052306104405261043c610260515afa6132e357600080fd5b601f3d116132f057600080fd5b6000506104a051610400518082101561330857600080fd5b80820390509050610220525b6064356102205110151515613368576308c379a0610400526020610420526017610440527f546f6f2066657720636f696e7320696e20726573756c740000000000000000006104605261044050606461041cfd5b613454565b602061038060246370a0823161030052306103205261031c610260515afa61339457600080fd5b601f3d116133a157600080fd5b6000506103805161022052610180513b6133ba57600080fd5b600060006084633df02124610300526101a051610320526101c0516103405261028051610360526064356103805261031c6000610180515af16133fc57600080fd5b602061038060246370a0823161030052306103205261031c610260515afa61342357600080fd5b601f3d1161343057600080fd5b60005061038051610220518082101561344857600080fd5b80820390509050610220525b60006004610300527fa9059cbb000000000000000000000000000000000000000000000000000000006103205261030060048060208461036001018260208501600060045af15050805182019150503360208261036001015260208101905061022051602082610360010152602081019050806103605261036090508051602001806104008284600060045af16134ea57600080fd5b505060206104c0610400516104206000610260515af161350957600080fd5b60203d8082111561351a578061351c565b815b905090506104a0526104a08051602001806102a08284600060045af161354157600080fd5b505060006102a0511115613594576102a080602001516000825180602090131561356a57600080fd5b809190121561357857600080fd5b806020036101000a8204905090509050151561359357600080fd5b5b6004356103005260443561032052602435610340526102205161036052337fd013ca23e77a65003c2c659c5442c00c805371b7fc1ebd4c206c41d1536bd90b6080610300a261022051600052600062ffffff5560206000f350600062ffffff55005b635b36389c60005114156138b35762ffffff541561361357600080fd5b600162ffffff5560206101c060046318160ddd6101605261017c6006545afa61363b57600080fd5b601f3d1161364857600080fd5b6000506101c05161014052608036610160376101e060006002818352015b6101e0516002811061367757600080fd5b600160c052602060c0200154600435808202821582848304141761369a57600080fd5b809050905090506101405180806136b057600080fd5b8204905090506102005260246101e051600281106136cd57600080fd5b60200201356102005110151515613723576308c379a0610220526020610240526017610260527f546f6f2066657720636f696e7320696e20726573756c740000000000000000006102805261026050606461023cfd5b6101e0516002811061373457600080fd5b600160c052602060c020018054610200518082101561375257600080fd5b80820390509050815550610200516101606101e0516002811061377457600080fd5b602002015260206102c0604463a9059cbb610220523361024052610200516102605261023c60006101e051600281106137ac57600080fd5b600060c052602060c02001545af16137c357600080fd5b601f3d116137d057600080fd5b6000506102c0516137e057600080fd5b5b8151600101808352811415613666575b5050602061028060446379cc67906101e0523361020052600435610220526101fc60006006545af161382257600080fd5b601f3d1161382f57600080fd5b60005061028050610160516101e05261018051610200526101a051610220526101c05161024052610140516004358082101561386a57600080fd5b8082039050905061026052337f7c363854ccf79623411f8995b362bce5eddff18c927edc6f5dbbb5e05819a82c60a06101e0a2600062ffffff556040610160f3600062ffffff55005b63e3103273600051141561409d5762ffffff54156138d057600080fd5b600162ffffff55601454156138e457600080fd5b6101405160065801610026565b61016052610140526101605161014052610140516101605160065801610438565b6101805261016052610140526101805161016052602061020060046318160ddd6101a0526101bc6006545afa61394757600080fd5b601f3d1161395457600080fd5b60005061020051610180526000610180511861396f57600080fd5b6002546002808202821582848304141761398857600080fd5b809050905090506004808204905090506101a0526003546101c05260018060c052602060c020546101e05260018160c052602060c020015461020052506101e0516102205261020051610240526101405161016051610180516101a0516101c0516101e0516102005161022051610240516102605161016051610280526101e0516102a052610200516102c052610140516102e0526102e0516102c0516102a0516102805160065801610861565b61034052610260526102405261022052610200526101e0526101c0526101a052610180526101605261014052610340516102605261028060006002818352015b6102206102805160028110613a8a57600080fd5b60200201805160046102805160028110613aa357600080fd5b602002013580821015613ab557600080fd5b808203905090508152505b8151600101808352811415613a76575b50506101405161016051610180516101a0516101c0516101e0516102005161022051610240516102605161028051610160516102a052610220516102c052610240516102e0526101405161030052610300516102e0516102c0516102a05160065801610861565b6103605261028052610260526102405261022052610200526101e0526101c0526101a05261018052610160526101405261036051610280526040366102a0376102e060006002818352015b610280516101e06102e05160028110613b9a57600080fd5b60200201518082028215828483041417613bb357600080fd5b80905090509050610260518080613bc957600080fd5b820490509050610300526000610320526102206102e05160028110613bed57600080fd5b6020020151610300511115613c3657610300516102206102e05160028110613c1457600080fd5b602002015180821015613c2657600080fd5b8082039050905061032052613c6c565b6102206102e05160028110613c4a57600080fd5b60200201516103005180821015613c6057600080fd5b80820390509050610320525b6101a051610320518082028215828483041417613c8857600080fd5b809050905090506402540be400808204905090506102a06102e05160028110613cb057600080fd5b60200201526102206102e05160028110613cc957600080fd5b60200201516102a06102e05160028110613ce257600080fd5b60200201516101c0518082028215828483041417613cff57600080fd5b809050905090506402540be4008082049050905080821015613d2057600080fd5b808203905090506102e05160028110613d3857600080fd5b600160c052602060c02001556102206102e05160028110613d5857600080fd5b6020020180516102a06102e05160028110613d7257600080fd5b602002015180821015613d8457600080fd5b808203905090508152505b8151600101808352811415613b82575b5050610140610300525b61030051516020610300510161030052610300610300511015613dcb57613da9565b61016051610320526102205161034052610240516103605261014051610380526103805161036051610340516103205160065801610861565b6103e0526102e0610300525b6103005152602061030051036103005261014061030051101515613e3357613e10565b6103e0516102e052610260516102e05180821015613e5057600080fd5b80820390509050610180518082028215828483041417613e6f57600080fd5b80905090509050610260518080613e8557600080fd5b8204905090506103005260006103005118613e9f57600080fd5b61030080516001818183011015613eb557600080fd5b808201905090508152506044356103005111151515613f13576308c379a0610320526020610340526014610360527f536c697070616765207363726577656420796f750000000000000000000000006103805261036050606461033cfd5b60206103c060446379cc6790610320523361034052610300516103605261033c60006006545af1613f4357600080fd5b601f3d11613f5057600080fd5b6000506103c05061032060006002818352015b600060046103205160028110613f7857600080fd5b60200201351815613fff5760206103e0604463a9059cbb61034052336103605260046103205160028110613fab57600080fd5b60200201356103805261035c60006103205160028110613fca57600080fd5b600060c052602060c02001545af1613fe157600080fd5b601f3d11613fee57600080fd5b6000506103e051613ffe57600080fd5b5b5b8151600101808352811415613f63575b505060043561032052602435610340526102a051610360526102c05161038052610280516103a05261018051610300518082101561404d57600080fd5b808203905090506103c052337f2b5508378d7e19e0d5fa338419034731416c4f5b219a10379956f764317fd47e60c0610320a261030051600052600062ffffff5560206000f350600062ffffff55005b60001561440a575b6101e0526101405261016052610180526101a0526101c05260006101605112156140ce57600080fd5b600261016051126140de57600080fd5b606036610200376101c05161026052610140516002808202821582848304141761410757600080fd5b80905090509050610280526102a060006002818352015b610160516102a051181561414e576101806102a0516002811061414057600080fd5b602002015161022052614153565b6141cf565b61020080516102205181818301101561416b57600080fd5b80820190509050815250610260516101c051808202821582848304141761419157600080fd5b8090509050905061022051600280820282158284830414176141b257600080fd5b8090509050905080806141c457600080fd5b820490509050610260525b815160010180835281141561411e575b5050610260516101c05180820282158284830414176141fd57600080fd5b809050905090506064808202821582848304141761421a57600080fd5b80905090509050610280516002808202821582848304141761423b57600080fd5b80905090509050808061424d57600080fd5b82049050905061026052610200516101c0516064808202821582848304141761427557600080fd5b8090509050905061028051808061428b57600080fd5b8204905090508181830110156142a057600080fd5b808201905090506102a0526101c0516102c0526102e0600060ff818352015b6102c051610240526102c0516102c05180820282158284830414176142e357600080fd5b80905090509050610260518181830110156142fd57600080fd5b8082019050905060026102c051808202821582848304141761431e57600080fd5b809050905090506102a05181818301101561433857600080fd5b808201905090506101c0518082101561435057600080fd5b80820390509050808061436257600080fd5b8204905090506102c052610240516102c05111156143b75760016102c051610240518082101561439157600080fd5b808203905090501115156143b2576102c05160005250506000516101e05156505b6143f0565b6001610240516102c051808210156143ce57600080fd5b808203905090501115156143ef576102c05160005250506000516101e05156505b5b5b81516001018083528114156142bf575b505060006000fd005b600015614aa5575b6101a0526101405261016052610180526101405161016051610180516101a0516101c05160065801610026565b6101e0526101c0526101a0526101805261016052610140526101e0516101c0526101405161016051610180516101a0516101c0516101e0516102005161018051610220526102205160065801610226565b610280526102a052610200526101e0526101c0526101a05261018052610160526101405261028080516101e052806020015161020052506101405161016051610180516101a0516101c0516101e05161020051610220516101e0516102405261020051610260526101c0516102805261028051610260516102405160065801610559565b6102e05261022052610200526101e0526101c0526101a0526101805261016052610140526102e0516102205260206102c060046318160ddd6102605261027c6006545afa61456157600080fd5b601f3d1161456e57600080fd5b6000506102c05161024052610220516101405161022051808202821582848304141761459957600080fd5b809050905090506102405180806145af57600080fd5b820490509050808210156145c257600080fd5b80820390509050610260526101405161016051610180516101a0516101c0516101e05161020051610220516102405161026051610280516101c0516102a052610160516102c0526101e0516102e0526102005161030052610260516103205261032051610300516102e0516102c0516102a051600658016140a5565b6103805261028052610260526102405261022052610200526101e0526101c0526101a05261018052610160526101405261038051610280526002546002808202821582848304141761468f57600080fd5b809050905090506004808204905090506102a052670de0b6b3a76400006102c052670de0b6b3a76400006102e052610180516102e0526101e0516103005261020051610320526101e061016051600281106146e957600080fd5b602002015161028051808210156146ff57600080fd5b80820390509050670de0b6b3a7640000808202821582848304141761472357600080fd5b809050905090506102c0610160516002811061473e57600080fd5b6020020151808061474e57600080fd5b8204905090506103405261036060006002818352015b600061038052610160516103605114156147e6576101e0610360516002811061478c57600080fd5b60200201516102605180820282158284830414176147a957600080fd5b809050905090506102205180806147bf57600080fd5b82049050905061028051808210156147d657600080fd5b8082039050905061038052614865565b6101e061036051600281106147fa57600080fd5b60200201516101e0610360516002811061481357600080fd5b602002015161026051808202821582848304141761483057600080fd5b8090509050905061022051808061484657600080fd5b8204905090508082101561485957600080fd5b80820390509050610380525b610300610360516002811061487957600080fd5b6020020180516102a05161038051808202821582848304141761489b57600080fd5b809050905090506402540be40080820490509050808210156148bc57600080fd5b808203905090508152505b8151600101808352811415614764575b505061030061016051600281106148ed57600080fd5b6020020151610140610380525b6103805151602061038051016103805261038061038051101561491c576148fa565b6101c0516103a052610160516103c052610300516103e0526103205161040052610260516104205261042051610400516103e0516103c0516103a051600658016140a5565b61048052610360610380525b61038051526020610380510361038052610140610380511015156149905761496d565b61048051808210156149a157600080fd5b8082039050905061036052610360516001808210156149bf57600080fd5b80820390509050670de0b6b3a764000080820282158284830414176149e357600080fd5b809050905090506102c061016051600281106149fe57600080fd5b60200201518080614a0e57600080fd5b8204905090506103605261038080808061036051815250506020810190508080610340516103605180821015614a4357600080fd5b80820390509050815250506020810190508080610240518152505060609050905060c05260c0516103e0525b60006103e051111515614a8157614a9d565b60206103e05103610380015160206103e051036103e052614a6f565b6101a0515650005b63cc2b27d76000511415614b6e5760243580806000811215614ac357195b607f1c15614ad057600080fd5b90505061014051600658016104d2565b61016052610140526101605161014052610140516004356101605260243561018052610140516101a0526101a051610180516101605160065801614412565b61020052610220526102405261014052610200808080805161026052505060208101905080808051610280525050602081019050808080516102a052505050506102605160005260206000f350005b631a4d01d26000511415614e735762ffffff5415614b8b57600080fd5b600162ffffff5560243580806000811215614ba257195b607f1c15614baf57600080fd5b90505060145415614bbf57600080fd5b6101405160065801610438565b61016052610140526101605161014052606036610160376101405161016051610180516101a0516004356101c0526024356101e0526101405161020052610200516101e0516101c05160065801614412565b61026052610280526102a0526101a05261018052610160526101405261026080808080516102c0525050602081019050808080516102e05250506020810190508080805161030052505050506102c080516101605280602001516101805280604001516101a052506044356101605110151515614cda576308c379a06101c05260206101e0526018610200527f4e6f7420656e6f75676820636f696e732072656d6f7665640000000000000000610220526102005060646101dcfd5b60243560028110614cea57600080fd5b600160c052602060c02001805461016051610180516003548082028215828483041417614d1657600080fd5b809050905090506402540be40080820490509050818183011015614d3957600080fd5b8082019050905080821015614d4d57600080fd5b80820390509050815550602061026060446379cc67906101c052336101e052600435610200526101dc60006006545af1614d8657600080fd5b601f3d11614d9357600080fd5b600050610260506020610260604463a9059cbb6101c052336101e05261016051610200526101dc600060243560028110614dcc57600080fd5b600060c052602060c02001545af1614de357600080fd5b601f3d11614df057600080fd5b60005061026051614e0057600080fd5b6004356101c052610160516101e0526101a05160043580821015614e2357600080fd5b8082039050905061020052337f5ad056f2e28a8cec232015406b843668c1e36cda598127ec3b8c59b8c72773a060606101c0a261016051600052600062ffffff5560206000f350600062ffffff55005b633c157e646000511415615017576004543314614e8f57600080fd5b600d5462015180818183011015614ea557600080fd5b80820190509050421015614eb857600080fd5b4262015180818183011015614ecc57600080fd5b808201905090506024351015614ee157600080fd5b6101405160065801610026565b6101605261014052610160516101405260043560648082028215828483041417614f1757600080fd5b809050905090506101605260006004351115614f3a57620f424060043510614f3d565b60005b614f4657600080fd5b61014051610160511015614f89576101405161016051600a8082028215828483041417614f7257600080fd5b809050905090501015614f8457600080fd5b614fba565b61014051600a8082028215828483041417614fa357600080fd5b80905090509050610160511115614fb957600080fd5b5b61014051600b5561016051600c5542600d55602435600e556101405161018052610160516101a052426101c0526024356101e0527fa2b71ec6df949300b59aab36b55e189697b750119dd349fcfa8c0f779e83c2546080610180a1005b63551a6588600051141561509c57600454331461503357600080fd5b6101405160065801610026565b6101605261014052610160516101405261014051600b5561014051600c5542600d5542600e55610140516101605242610180527f46e22fb3709ad289f62ce63d469248536dbc78d82b84a3d7e74ad606dc2019386040610160a1005b635b5a1467600051141561515a5760045433146150b857600080fd5b600f54156150c557600080fd5b64012a05f20060043511156150d957600080fd5b6402540be40060243511156150ed57600080fd5b426203f48081818301101561510157600080fd5b808201905090506101405261014051600f556004356011556024356012556004356101605260243561018052610140517f351fc5da2fbf480f2225debf3664a4bc90fa9923743aad58b4603f648e931fe06040610160a2005b634f12fe9760005114156151ee57600454331461517657600080fd5b600f5442101561518557600080fd5b6000600f541861519457600080fd5b6000600f55601154610140526012546101605261014051600255610160516003556101405161018052610160516101a0527fbe12859b636aed607d5230b2cc2711f68d70e51060e6cca1f575ef5d2fcc95d16040610180a1005b63226840fb600051141561521157600454331461520a57600080fd5b6000600f55005b636b441a4060005114156152a55760043560a01c1561522f57600080fd5b600454331461523d57600080fd5b6010541561524a57600080fd5b426203f48081818301101561525e57600080fd5b808201905090506101405261014051601055600435601355600435610140517f181aa3aa17d4cbf99265dd4443eba009433d3cde79d60164fde1d1a192beb93560006000a3005b636a1c05ae600051141561531e5760045433146152c157600080fd5b6010544210156152d057600080fd5b6000601054186152df57600080fd5b60006010556013546101405261014051600455610140517f71614071b88dee5e0b2ae578a9dd7b2ebbe9ae832ba419dc0242cd065a290b6c60006000a2005b6386fbf193600051141561534157600454331461533a57600080fd5b6000601055005b630fb806d5600051141561539e5760043560a01c1561535f57600080fd5b600454331461536d57600080fd5b6004356005556004357ff6306346467904cb0e6dd1587c450e73948ad57b625bb3d1bfd0eac6537a454260006000a2005b636491ac00600051141561543a5760206101c060246370a0823161014052306101605261015c600435600281106153d457600080fd5b600060c052602060c02001545afa6153eb57600080fd5b601f3d116153f857600080fd5b6000506101c0516004356002811061540f57600080fd5b600160c052602060c02001548082101561542857600080fd5b8082039050905060005260206000f350005b635cb2bb0860005114156155575761014060006002818352015b610140516002811061546557600080fd5b600060c052602060c020015461016052602061022060246370a082316101a052306101c0526101bc610160515afa61549c57600080fd5b601f3d116154a957600080fd5b6000506102205161014051600281106154c157600080fd5b600160c052602060c0200154808210156154da57600080fd5b80820390509050610180526000610180511115615542576020610240604463a9059cbb6101a0526005546101c052610180516101e0526101bc6000610160515af161552457600080fd5b601f3d1161553157600080fd5b6000506102405161554157600080fd5b5b5b8151600101808352811415615454575b5050005b63e3698853600051141561558857600454331461557357600080fd5b426015541161558157600080fd5b6001601455005b633046f97260005114156155ab5760045433146155a457600080fd5b6000601455005b63c661065760005114156155e057600435600281106155c957600080fd5b600060c052602060c020015460005260206000f350005b634903b0d1600051141561561557600435600281106155fe57600080fd5b600160c052602060c020015460005260206000f350005b63ddca3f4360005114156156315760025460005260206000f350005b6316552732600051141561564d5760035460005260206000f350005b638da5cb5b60005114156156695760045460005260206000f350005b63cab4d3db60005114156156855760055460005260206000f350005b63fc0c546a60005114156156a15760065460005260206000f350005b635d6362bb60005114156156bd5760075460005260206000f350005b6395ccc02f60005114156156d95760085460005260206000f350005b638296f84f60005114156156f55760095460005260206000f350005b6387cb4f57600051141561572a576004356003811061571357600080fd5b600a60c052602060c020015460005260206000f350005b635409491a600051141561574657600b5460005260206000f350005b63b4b577ad600051141561576257600c5460005260206000f350005b632081066c600051141561577e57600d5460005260206000f350005b6314052288600051141561579a57600e5460005260206000f350005b63405e28f860005114156157b657600f5460005260206000f350005b63e0a0b58660005114156157d25760105460005260206000f350005b6358680d0b60005114156157ee5760115460005260206000f350005b6353a8ed11600051141561580a5760125460005260206000f350005b631ec0cdc160005114156158265760135460005260206000f350005b5b60006000fd5b6103c8615bf5036103c86000396103c8615bf5036000f3"
}